:100000000C944F010C9480010C9480010C9480019D
:100010000C9480010C9480010C9480010C9480015C
:100020000C9480010C9480010C9480010C9480014C
:100030000C9480010C9480010C9480010C9480013C
:100040000C9480010C9480010C9480010C9480012C
:100050000C9480010C9480010C9480010C94AE04EB
:100060000C9480010C9478040C944E040C94800140
:100070000C9480010C9480010C9480010C948001FC
:100080000C9480010C9480010C9480010C948001EC
:100090000C9480010C9480010C9480010C948001DC
:1000A0000C9480010C9480010C9480010C948001CC
:1000B0000C9480010C9480010C9480010C948001BC
:1000C0000C9480010C9480010C9480010C948001AC
:1000D0000C9480010C9480010C9480010C9480019C
:1000E0000C9480010C9471030C94A2030C9494035F
:1000F0000C9479030C9475030C9482030C949A036A
:100100000C94A8030C947C030C94A7030C948C030C
:100110000C940A040C946D030C940A080C94B10717
:100120000C9486030C94E0070C9451020C94650225
:100130000C9420080C944A040C94AC030C946703B0
:100140000C94F8040C9458080C94AB020C94D9034A
:100150000C949E030C94D8070C943A080C949003CA
:100160000C9473020C94F8020C94F8070C9415028A
:100170000C9442020C94DA070C94EA070000210068
:10018000240027002A002D00300033000101000068
:10019000040107010A0100002200250028002B00AD
:1001A0002E003100340002010000050108010B019E
:1001B000000020002300260029002C002F00320020
:1001C00000010000030106010901050505050705F9
:1001D00008080808020202020A0A080804040404C3
:1001E00001010101010101010303030303030303EF
:1001F000040707070C0C0C0C0C0C0C0C020202027E
:1002000006060606060606060B0B0B0B0B0B0B0B66
:100210000102102020080810204010204080020118
:1002200002010804020101020408102040808040FD
:1002300020100804020180040201804020100804FC
:10024000020108040201010204081020408001029A
:1002500004081020408000000A0B02090C0D0E0853
:10026000070304010000000000000000000000007F
:10027000000000000000000000000000000000007E
:10028000000012111000000000000000000000003B
:10029000000000000000000000000000F80411242D
:1002A0001FBECFEFD1E2DEBFCDBF00E00CBF12E03A
:1002B000A0E0B2E0ECE0F1E100E00BBF02C007908B
:1002C0000D92A233B107D9F723E0A2E3B2E001C057
:1002D0001D92A734B207E1F711E0CFE4D1E000E0CE
:1002E00006C021970109802FFE010E947C08CE34B0
:1002F000D10780E00807A9F70E9486050C948408BE
:100300000C94000096E0899FD0011124A852BD4FA3
:1003100090967C936E935F9791E091969C939197C2
:10032000E0914503F091460390914403992339F0FD
:10033000309751F0811108C08091F40219943097E0
:1003400019F05C968C91FACF0895CF92DF92EF92DC
:10035000FF920F931F9396E0899FF0011124E852BA
:10036000FD4F11A2278D30A12130310551F178F0D8
:100370002230310509F451C02330310509F452C04F
:100380001F910F91FF90EF90DF90CF90089566231B
:10039000B9F361E070E00E9482012FB7F894809178
:1003A000370290913802A0913902B0913A022FBFE2
:1003B0008093300390933103A0933203B0933303BF
:1003C000DFCF9FB7F894C0903702D0903802E0900A
:1003D0003902F0903A029FBF00913003109131032F
:1003E0002091320330913303C01AD10AE20AF30A92
:1003F000009142031091430330E020E00C151D05ED
:100400002E053F0550F462E070E01F910F91FF90C0
:10041000EF90DF90CF900C9482016111B1CF63E037
:1004200070E0F3CF70E060E0F0CFAF92BF92CF9278
:10043000DF92EF92FF920F931F93CF93DF936C01A4
:100440007B018B01040F151FEB015E01AE18BF0885
:10045000C017D10759F06991D601ED91FC91019037
:10046000F081E02DC6011995892B79F7C501DF913F
:10047000CF911F910F91FF90EF90DF90CF90BF90A1
:10048000AF900895FC01538D448D252F30E0842FCB
:1004900090E0821B930B541710F0CF9608950197AC
:1004A0000895FC01918D828D981761F0A28DAE0F99
:1004B000BF2FB11D5D968C91928D9F5F9F73928F20
:1004C00090E008958FEF9FEF0895FC01918D828D4C
:1004D000981731F0828DE80FF11D858D90E0089519
:1004E0008FEF9FEF0895FC01918D228D892F90E071
:1004F000805C9F4F821B91098F73992708958BE32E
:1005000092E00E94730221E0892B09F420E0822FFF
:100510000895FC01A48DA80FB92FB11DA35ABF4F98
:100520002C91848D90E001968F739927848FA689F2
:10053000B7892C93A089B1898C91837080648C9346
:10054000938D848D981306C00288F389E02D8081F5
:100550008F7D80830895EF92FF920F931F93CF9327
:10056000DF93EC0181E0888F9B8D8C8D98131AC0EE
:10057000E889F989808185FF15C09FB7F894EE89D5
:10058000FF896083E889F989808183708064808332
:100590009FBF81E090E0DF91CF911F910F91FF907D
:1005A000EF900895F62E0B8D10E00F5F1F4F0F7325
:1005B0001127E02E8C8D8E110CC00FB607FCFACFE0
:1005C000E889F989808185FFF5CFCE010E948902F3
:1005D000F1CFEB8DEC0FFD2FF11DE35AFF4FF082B1
:1005E0009FB7F8940B8FEA89FB8980818062CFCF17
:1005F000CF93DF93EC01888D8823B9F0AA89BB895A
:10060000E889F9898C9185FD03C0808186FD0DC044
:100610000FB607FCF7CF8C9185FFF2CF808185FF65
:10062000EDCFCE010E948902E9CFDF91CF910895ED
:1006300080E090E0892B29F00E947F0281110E94C6
:10064000000080E090E0892B49F080E090E0892B69
:1006500029F00E94000081110E94000080E090E0DB
:10066000892B49F080E090E0892B29F00E9400005E
:1006700081110E94000080E090E0892B49F080E029
:1006800090E0892B29F00E94000081110C94000059
:1006900008958150823108F05AC0E82FF0E0882791
:1006A000EB5AFC4F8F4F0C947C087503790367035A
:1006B0006D037103A7037C03820386038C039003FD
:1006C00094039A039E03A703A203A803AC0380919B
:1006D00080008F77809380000895809180008F7DC7
:1006E000F9CF80918000877FF5CF84B58F7784BD67
:1006F000089584B58F7DFBCF8091B0008F77809374
:10070000B00008958091B0008F7DF9CF8091900066
:100710008F77809390000895809190008F7DF9CF1E
:1007200080919000877FF5CF8091A0008F77809394
:10073000A00008958091A0008F7DF9CF8091A00046
:10074000877FF5CF809120018F77809320010895D6
:10075000809120018F7DF9CF80912001877FF5CF97
:10076000CF93DF93282F30E0F901EA5AFD4F8491AF
:10077000F901E05FFD4FD491F901E653FE4FC491BA
:10078000CC23A1F081110E944903EC2FF0E0EE0F81
:10079000FF1FE055FE4FA591B491EC91ED2381E050
:1007A00090E009F480E0DF91CF91089580E090E03F
:1007B000FACF862F0C94B0031F93CF93DF93282F8B
:1007C00030E0F901EA5AFD4F8491F901E05FFD4FF5
:1007D000D491F901E653FE4FC491CC23A9F0162F12
:1007E00081110E944903EC2FF0E0EE0FFF1FEA5643
:1007F000FE4FA591B4918FB7F894EC91111108C0F8
:10080000D095DE23DC938FBFDF91CF911F910895A8
:10081000DE2BF8CF862F642F0C94DC03CF93DF936D
:1008200090E0FC01E05FFD4F249186539E4FFC0158
:1008300084918823C9F090E0880F991FFC01E45847
:10084000FE4FA591B491FC01EA56FE4FC591D4919B
:1008500061110DC09FB7F8948C91209582238C93E1
:100860008881282328839FBFDF91CF91089562302C
:1008700051F49FB7F8943C91822F809583238C93F9
:10088000E8812E2BEFCF8FB7F894EC912E2B2C9381
:100890008FBFEACF862F642F0C940E041F920F9205
:1008A0000FB60F9211240BB60F922F933F934F93D5
:1008B0005F936F937F938F939F93AF93BF93EF93C8
:1008C000FF938BE392E00E948902FF91EF91BF9129
:1008D000AF919F918F917F916F915F914F913F91D8
:1008E0002F910F900BBE0F900FBE0F901F90189579
:1008F0001F920F920FB60F9211240BB60F922F93E7
:100900008F939F93EF93FF93E0914B02F0914C02F2
:100910008081E0915102F091520282FD1DC09081D0
:10092000809154028F5F8F7320915502821741F09E
:10093000E0915402F0E0E55CFD4F958F8093540206
:10094000FF91EF919F918F912F910F900BBE0F9080
:100950000FBE0F901F9018958081F2CF1F920F92BB
:100960000FB60F9211242F933F938F939F93AF93C2
:10097000BF938091370290913802A0913902B091D3
:100980003A023091360223E0230F2D3758F50196B5
:10099000A11DB11D20933602809337029093380237
:1009A000A0933902B0933A028091320290913302BF
:1009B000A0913402B09135020196A11DB11D809322
:1009C000320290933302A0933402B0933502BF9168
:1009D000AF919F918F913F912F910F900FBE0F90EC
:1009E0001F90189526E8230F0296A11DB11DD2CFA6
:1009F00010923E0210923D0288EE93E0A0E0B0E03B
:100A000080933F0290934002A0934102B093420230
:100A100087E192E090933C0280933B0285EC90E06A
:100A2000909348028093470284EC90E090934A02AE
:100A30008093490280EC90E090934C0280934B02AB
:100A400081EC90E090934E0280934D0282EC90E016
:100A50009093500280934F0286EC90E09093520264
:100A60008093510210925402109255021092560235
:100A7000109257021092DA021092DE021092DD02FA
:100A80001092DF0289E292E09093D9028093D8021B
:100A9000E4EFF2E01082148213821582369683E02E
:100AA000E033F807B9F783E092E090933B0380933B
:100AB0003A0380E092E090933D0380933C0384E00E
:100AC00080933E0383E080933F0387E092E090931E
:100AD0003903809338038AE090E090934103809338
:100AE000400384EF91E0909343038093420310927C
:100AF000460310924503109234031092350310926E
:100B0000360310923703109244030895789484B505
:100B1000826084BD84B5816084BD85B5826085BDF9
:100B200085B5816085BD80916E00816080936E0087
:100B30001092810080918100826080938100809179
:100B4000810081608093810080918000816080932A
:100B500080008091B10084608093B1008091B000EA
:100B600081608093B00080919100826080939100B9
:100B700080919100816080939100809190008160CC
:100B8000809390008091A10082608093A100809169
:100B9000A10081608093A1008091A000816080937A
:100BA000A000809121018260809321018091210128
:100BB00081608093210180912001816080932001D8
:100BC00080917A00846080937A0080917A008260BC
:100BD00080937A0080917A00816080937A0080917E
:100BE0007A00806880937A001092C10061E086E309
:100BF0000E940E0461E087E30E940E0461E088E336
:100C00000E940E0461E089E30E940E0461E08AE321
:100C10000E940E0461E08BE30E940E0461E08CE30D
:100C20000E940E0461E08DE30E940E0461E08EE3F9
:100C30000E940E04E0914B02F0914C0282E080830E
:100C4000E0914702F09148021082E0914902F09150
:100C50004A028FEC808310925302E0914F02F09190
:100C6000500286E08083E0914D02F0914E02808137
:100C700080618083E0914D02F0914E028081886016
:100C80008083E0914D02F0914E02808180688083E4
:100C9000E0914D02F0914E0280818F7D808322246D
:100CA0002394412C512C32014394CC24CA94DC2C43
:100CB00056E0352E209244038FB7F89440913702C6
:100CC000509138026091390270913A028FBF809141
:100CD000340390913503A0913603B0913703481B3C
:100CE000590B6A0B7B0B8091400390914103B0E05C
:100CF000A0E084179507A607B707E0F6C0E080914B
:100D00003E03C81760F4E0913A03F0913B03EC0F07
:100D1000F11D62E080810E940E04CF5FF0CF912C24
:100D200080913F03981608F05FC0092D10E0E09114
:100D30003C03F0913D03E00FF11F61E080810E94D0
:100D40000E04E0913C03F0913D03E00FF11F60E0E1
:100D500080810E94DC03D301C201092C04C0880FEA
:100D6000991FAA1FBB1F0A94D2F75C017C01E09473
:100D7000F094812C80913E038816F8F4C82DD0E0C1
:100D8000E0913A03F0913B03EC0FFD1F80810E943C
:100D9000B0032496CC0FDD1FC852DD4F892B41F4E0
:100DA000888199818A299B29998388838394E2CFBA
:100DB000888199818E219F21F7CFE0913C03F091AA
:100DC0003D03E00FF11F61E080810E94DC03809110
:100DD0003C0390913D03080F191F60E0F8018081EA
:100DE0000E940E0493949CCFC8EDD2E0FE01878D43
:100DF00090A1892B21F4148ED68EC58E11A2369621
:100E000083E0E431F80799F710E080913E0318176A
:100E100008F052C000E0E12EF12CEE0CFF1CF701AF
:100E2000E052FD4F7F0120913F03021708F042C0BE
:100E3000F70160817181002E02C0769567950A9452
:100E4000E2F7129F90011124200F311DE8EDF2E02E
:100E500080E0458D568D2417350709F44BC18F5F0F
:100E600036968A30B1F760FF23C0E8EDF2E090E0FB
:100E700080E0448D411117C0E0913803F0913903AF
:100E8000E20FF31F6081389EF001399EF00D1124AE
:100E9000E852FD4F648F368F258F10A2178E61E0C8
:100EA0000E94A50105C0019636968A30910509F782
:100EB0000F5FB9CF1F5FA9CF80E099A19111892F52
:100EC0002696F3E0C431DF07C1F79FB7F89440914D
:100ED0003702509138026091390270913A029FBFF7
:100EE0004093340350933503609336037093370374
:100EF000882309F4DFCE8091F902882309F4DACE41
:100F00008091F7029091F802019709F0D3CEC09139
:100F1000F402CC2309F4CECE6C2F8BE392E00E9436
:100F2000AB0242E050E06FE272E08BE392E00E949D
:100F30001502E0EDEC0FEA3008F037C00E2E000C81
:100F4000FF0B8827E955F84F8F4F0C947C08B107A9
:100F5000D807DA07E007EA07F8070A0820083A087E
:100F6000580860E08EE30E94DC0360E08DE30E949D
:100F7000DC0360E08CE30E94DC0360E08BE30E9412
:100F8000DC0360E08AE30E94DC0360E089E30E9406
:100F9000DC0360E088E30E94DC0360E087E30E94FA
:100FA000DC0360E086E30E94DC030E94180382CE2B
:100FB00061E0D8CF61E08EE30E94DC0361E0D6CF30
:100FC00061E08EE30E94DC0361E08DE30E94DC03BC
:100FD00061E0D0CF61E08EE30E94DC0361E08DE34D
:100FE0000E94DC0361E08CE30E94DC0361E0C6CF79
:100FF00061E08EE30E94DC0361E08DE30E94DC038C
:1010000061E08CE30E94DC0361E08BE30E94DC037F
:1010100061E0B8CF61E08EE30E94DC0361E08DE324
:101020000E94DC0361E08CE30E94DC0361E08BE35F
:101030000E94DC0361E08AE30E94DC0361E0A6CF4A
:1010400061E08EE30E94DC0361E08DE30E94DC033B
:1010500061E08CE30E94DC0361E08BE30E94DC032F
:1010600061E08AE30E94DC0361E089E30E94DC0323
:1010700061E090CF61E08EE30E94DC0361E08DE3EC
:101080000E94DC0361E08CE30E94DC0361E08BE3FF
:101090000E94DC0361E08AE30E94DC0361E089E3F3
:1010A0000E94DC0361E088E30E94DC0361E076CF0C
:1010B00061E08EE30E94DC0361E08DE30E94DC03CB
:1010C00061E08CE30E94DC0361E08BE30E94DC03BF
:1010D00061E08AE30E94DC0361E089E30E94DC03B3
:1010E00061E088E30E94DC0361E087E30E94DC03A7
:1010F00061E058CF6170D4CEEE0FFF1F881F8BBF09
:0C1100000790F691E02D1994F894FFCFB1
:10110C001E1A162426282A3132333435363738390C
:10111C002A302300000000AB0215024202F80273D1
:10112C000251026502000000004A040A04D9030DB2
:02113C000A00A7
:00000001FF
