:100000000C9422010C9453010C9453010C94530151
:100010000C9453010C9453010C9453010C94530110
:100020000C9453010C9453010C9453010C94530100
:100030000C9453010C9453010C9453010C945301F0
:100040000C9453010C9453010C9453010C945301E0
:100050000C9453010C9453010C9453010C9493058C
:100060000C9453010C9453010C9453010C945301C0
:100070000C9453010C9453010C9453010C945301B0
:100080000C9453010C9453010C9453010C945301A0
:100090000C9453010C9453010C9453010C94530190
:1000A0000C9453010C9453010C9453010C94530180
:1000B0000C9453010C9453010C9453010C94530170
:1000C0000C9453010C9453010C9453010C94530160
:1000D0000C9453010C9453010C9453010C94530150
:1000E0000C9453010C948D050C9464020C9408023A
:1000F0000C9412020C9405020C9434020C94260207
:100100000C9420020C9401020C94E2010C94FD0169
:100110000C942A020C94F9010C9474010C940E02B4
:100120000C941C020C9438020C9418020C942E02AD
:100130000C9463020C9404070C94E70100000A0B72
:1001400002090C0D0E080703040100000000000066
:10015000000000000000000000000000000000009F
:10016000000000000000000012111000000000005C
:10017000000000000000000000000000000000007F
:10018000000000002200250028002B002E00310076
:10019000340002010000050108010B0100002100EC
:1001A000240027002A002D00300033000101000048
:1001B000040107010A0105050505070508080808E7
:1001C000020202020A0A08080404040401010101EF
:1001D00001010101030303030303030304070707EA
:1001E0000C0C0C0C0C0C0C0C02020202060606068F
:1001F000060606060B0B0B0B0B0B0B0B010210205C
:10020000200808102040102040800201020108044C
:1002100002010102040810204080804020100804E0
:100220000201800402018040201008040201080439
:10023000020101020408102040800102040810207D
:100240004080040711241FBECFEFD1E2DEBFCDBF37
:1002500000E00CBF22E0A0E2B2E001C01D92A23695
:10026000B207E1F712E0A0E0B2E0E2E8F3E100E07B
:100270000BBF02C007900D92A032B107D9F711E071
:10028000C2E2D1E000E006C021970109802FFE0103
:100290000E948D07C132D10780E00807A9F70E94AC
:1002A000DD050C94BF090C94000090E0FC01E450C3
:1002B000FE4F24918A549E4FFC018491882399F02B
:1002C00090E0880F991FFC01E456FE4FA591B49170
:1002D000FC01EE57FE4F859194918FB7F894EC9105
:1002E000E22BEC938FBF0895AF92BF92CF92DF9233
:1002F000EF92FF920F931F93CF93DF936C017B01DB
:100300008B01040F151FEB015E01AE18BF08C0176B
:10031000D10759F06991D601ED91FC910190F081DE
:10032000E02DC6011995892B79F7C501DF91CF9191
:100330001F910F91FF90EF90DF90CF90BF90AF9003
:100340000895FC01448155816081718186E492E0C9
:100350000C94740141E050E06EE172E086E492E0BA
:100360000C947401282F30E0F901E45CFE4F949165
:10037000F901E450FE4F44912A543E4FF901249173
:10038000222309F435C0992311F191509231F8F4E8
:10039000E92FF0E08827E053FE4F8F4F0C948D0734
:1003A00001020502E201F901FD01E70108020E0266
:1003B000120218021C02200226022A02E7012E0263
:1003C00034023802809180008F7780938000E22F82
:1003D000F0E0EE0FFF1FEE57FE4FA591B4918FB7DF
:1003E000F894EC91611148C040954E234C938FBF17
:1003F0000895809180008F7DE8CF80918000877F75
:10040000E4CF84B58F7784BDE2CF84B58F7DFBCFF9
:100410008091B0008F778093B000D9CF8091B000E9
:100420008F7DF9CF809190008F7780939000CFCF10
:10043000809190008F7DF9CF80919000877FF5CFDC
:100440008091A0008F778093A000C1CF8091A00001
:100450008F7DF9CF8091A000877FF5CF809120011B
:100460008F7780932001B3CF809120018F7DF9CFCA
:1004700080912001877FF5CF4E2BB8CF3FB7F894FE
:100480008091370290913802A0913902B0913A02DE
:1004900026B5A89B05C02F3F19F00196A11DB11DDF
:1004A0003FBFBA2FA92F982F8827BC01CD01620F1B
:1004B000711D811D911D42E0660F771F881F991FD6
:1004C0004A95D1F70895089590E080E008956093EB
:1004D0002E0270932F028093300290933102645D5C
:1004E0007E4F8F4F9F4F60932A0270932B02809311
:1004F0002C0290932D0282E090E090932902809349
:1005000028022FB7F8948091330290913402A09181
:100510003502B09136022FBF8093240290932502BA
:10052000A0932602B09327020895CF92DF92EF9214
:10053000FF920F931F938FB7F894C0903302D0901F
:100540003402E0903502F09036028FBF0091240211
:10055000109125022091260230912702C01AD10A5B
:10056000E20AF30A60912E0270912F02809130020C
:100570009091310248EEC41643E0D406E104F10440
:10058000C8F06F5F7F4F8F4F9F4F60932E02709325
:100590002F02809330029093310208511C4F2F4F4D
:1005A0003F4F00932402109325022093260230939C
:1005B0002702C1CF1F910F91FF90EF90DF90CF9056
:1005C00008954F925F926F927F928F929F92AF9217
:1005D000BF92CF92DF92EF92FF920F931F93CF9330
:1005E000DF934B015C018091200290912102A09148
:1005F0002202B091230288159905AA05BB0509F4CA
:10060000C6C08CE3C82ED12CE12CF12CC501A7016A
:1006100096010E946B0760933B02CA01B901A701D2
:1006200096010E946B0760933C02C501B40120E172
:100630003EE040E050E00E946B07CA01B90128E1AA
:1006400030E040E050E00E946B0760933D02C5013E
:10065000B40120E831E541E050E00E946B076901F8
:100660007A01CA01B9016C5F7F4F8F4F9F4F27E01E
:1006700030E040E050E00E946B076F5F60933E0205
:10068000412C512C320140E004E610E0C0E9D1E0F9
:10069000242F30E02E54384FF901E370FF273097B4
:1006A000F9F4C901B8010E945707892B31F4C90137
:1006B000BE010E945707892B99F48EE691E0A0E0D5
:1006C000B0E0480E591E6A1E7B1ED301C201AA2744
:1006D000BB27C816D906EA06FB0638F04F5FD8CF0D
:1006E0008DE691E0A0E0B0E0ECCF40934102C9017B
:1006F00064E670E00E945707EC01C90160E971E00F
:100700000E945707309721F42097D9F40097C9F039
:100710004DE651E060E070E0441A550A660A770A37
:10072000C418D508E608F708A2E1B2E020E02130BD
:1007300069F43097E9F5209711F40097C9F54DE178
:1007400006C04EE651E060E070E0E6CF4C9150E02C
:1007500070E060E031E0320FC416D506E606F70619
:1007600040F0C41AD50AE60AF70A1196232F3C3046
:10077000F1F62F5F20934002C394C0923F02809213
:10078000200290922102A0922202B0922302DF91D5
:10079000CF911F910F91FF90EF90DF90CF90BF907E
:1007A000AF909F908F907F906F905F904F90089543
:1007B0004CE1CDCFFC0180819181009711F00C9428
:1007C00045080895CF92DF92EF92FF920F931F9307
:1007D000CF93DF93CDB7DEB762970FB6F894DEBF45
:1007E0000FBECDBF8C01CB01F801118210821382A4
:1007F0001282158214824AE09E012F5F3F4F6901E9
:10080000B9010E942207F60101900020E9F7319713
:100810007F01EC18FD08F80180819181009729F093
:10082000228133812E153F0590F4B7016F5F7F4F12
:100830000E94CE08F801009799F091838083F3829B
:10084000E28224813581232B11F4FC011082F8010E
:10085000F582E482B601808191810E94B8090DC0C1
:1008600080819181009711F00E944508F801118262
:100870001082158214821382128262960FB6F89447
:10088000DEBF0FBECDBFDF91CF911F910F91FF90C3
:10089000EF90DF90CF900895CF93DF93EC0160E06D
:1008A0008E810E94B20161E08E810E94B20160E0FF
:1008B0008E810E94B2018BE891E00197F1F7DF9100
:1008C000CF910895CF92DF92EF92FF920F931F93F3
:1008D000CF93DF936C017C0187E0E80EF11CD0E040
:1008E000C0E0062F10E0B8010C2E02C07595679588
:1008F0000A94E2F76170F70181917F010E94B201D1
:100900002196C430D10579F7C601DF91CF911F91AF
:100910000F91FF90EF90DF90CF900C944C04CF920A
:10092000DF92EF92FF920F931F93CF93DF93EC012F
:10093000F62E642F8C810E94B2018D818F3F19F0B9
:1009400060E00E94B2010F2D10E08F8584FF25C06A
:100950006E0187E0C80ED11CF12CE12CB8010E2CE1
:1009600002C0759567950A94E2F76170F60181916E
:100970006F010E94B201FFEFEF1AFF0A88E0E8164C
:10098000F10461F7CE01DF91CF911F910F91FF909C
:10099000EF90DF90CF900C944C04B80184E07595F3
:1009A00067958A95E1F7CE010E9462046F2DCE0112
:1009B000DF91CF911F910F91FF90EF90DF90CF903B
:1009C0000C94620440E0682F86E492E00C948F045B
:1009D00081E00E94E2048BE39FE10197F1F7089523
:1009E000CF93DF93823029F49091550298609093D1
:1009F00055028093590210925A0280E480935B0260
:100A000080E180935C0280E580935D0280914A02E0
:100A10000E94550180914B028F3F11F00E945501B9
:100A200080914C020E945501C6E4D2E09E012654FA
:100A300032408091550284FD0AC084E090E0219606
:100A4000281739073CF48E810E945501EFCF88E0CA
:100A500090E0F5CF8BE39DE00197F1F760E08091A6
:100A60004A020E94B20160E080914C020E94B201F1
:100A700080914B028F3F19F060E00E94B20180919B
:100A8000550284FD34C063E086E492E00E94620473
:100A9000CBE4D6E4CE010197F1F763E086E492E07F
:100AA0000E9462042197F1F763E086E492E00E94DD
:100AB000620483E592E00197F1F762E086E492E058
:100AC0000E9462048091550280620E94E20484E0E8
:100AD000809356028CE00E94E2040E94E80482E0C7
:100AE0008093570286E0DF91CF910C94E2048062FC
:100AF0000E94E2048BE496E40197F1F7809155029D
:100B000080620E94E20483E592E00197F1F7809110
:100B1000550280620E94E204D5CF41E00E948F041A
:100B200081E090E008951F920F920FB60F9211246A
:100B30002F933F938F939F93AF93BF9380913302F3
:100B400090913402A0913502B09136023091320278
:100B500023E0230F2D3758F50196A11DB11D2093D9
:100B600032028093330290933402A0933502B09303
:100B700036028091370290913802A0913902B091EB
:100B80003A020196A11DB11D80933702909338025D
:100B9000A0933902B0933A02BF91AF919F918F9188
:100BA0003F912F910F900FBE0F901F90189526E840
:100BB000230F0296A11DB11DD2CFCF93DF9300D09A
:100BC00000D0CDB7DEB7789484B5826084BD84B59B
:100BD000816084BD85B5826085BD85B5816085BD38
:100BE00080916E00816080936E00109281008091F0
:100BF0008100826080938100809181008160809378
:100C00008100809180008160809380008091B1009C
:100C100084608093B1008091B00081608093B000C7
:100C20008091910082608093910080919100816019
:100C300080939100809190008160809390008091DA
:100C4000A10082608093A1008091A10081608093C7
:100C5000A1008091A00081608093A000809121017B
:100C60008260809321018091210181608093210124
:100C70008091200181608093200180917A008460BE
:100C800080937A0080917A00826080937A008091CC
:100C90007A00816080937A0080917A0080688093E6
:100CA0007A001092C10082E00E94F0040E94E804E1
:100CB00060ED76ED82E292E60E94670292E0E92E14
:100CC000F12C00E010E00E94E80480914402909131
:100CD0004502079781F48091420290914302019668
:100CE000B7010E94570790934302809342021092EB
:100CF00045021092440280914402E0914202E430A5
:100D000008F0E3E090915902E91710F0EFEFE90FD6
:100D1000F0E0EA5BFD4F9489890F80680E94E2044D
:100D20000E9495020E94E10260913F0270E0CE01B4
:100D300001960E94E203CE0101960E94A101CE011C
:100D400001960E94DA030E94AA010E9495020E9465
:100D5000E1026091400270E0CE0101960E94E20340
:100D6000CE0101960E94A101CE0101960E94DA03F4
:100D70000E94AA010E9495020E94E1026091410234
:100D800070E06E54784FCE0101960E94E203CE01CE
:100D900001960E94A101CE0101960E94DA030E94F1
:100DA0003E022B013C0188EE882E83E0982EA12C78
:100DB000B12C0E943E026419750986099709683EA4
:100DC000734081059105A8F321E0821A9108A108DA
:100DD000B10888EE480E83E0581E611C711C811416
:100DE0009104A104B10429F7809144029091450235
:100DF000019690934502809344020115110509F470
:100E000062CF0E9400005FCFE6E4F2E0138212821C
:100E10008AE092E0918380838DE084838FEF8583E5
:100E20008CE0868388E0878389E080878AE08187F9
:100E30008BE082871386148615861686178681E0D6
:100E40000C94F004BB274A3031F4992322F4BDE21C
:100E5000909581959F4F0C942E07BB27FB0155273A
:100E6000AA27880F991FAA1FA41710F0A41B839507
:100E70005051B9F7A05DAA3308F0A95DA19300977E
:100E800079F7B111B1931192CB010C944707DC01B2
:100E9000FC01672F71917723E1F7329704C07C91B1
:100EA0006D9370836291AE17BF07C8F3089597FBE7
:100EB000072E16F4009407D077FD09D00E949507FD
:100EC00007FC05D03EF4909581959F4F089570954D
:100ED00061957F4F0895A1E21A2EAA1BBB1BFD014D
:100EE0000DC0AA1FBB1FEE1FFF1FA217B307E40709
:100EF000F50720F0A21BB30BE40BF50B661F771F61
:100F0000881F991F1A9469F7609570958095909540
:100F10009B01AC01BD01CF010895EE0FFF1F881F9B
:100F20008BBF0790F691E02D1994AA1BBB1B51E1D2
:100F300007C0AA1FBB1FA617B70710F0A61BB70B49
:100F4000881F991F5A95A9F780959095BC01CD01EE
:100F500008950F931F93CF93DF938230910510F480
:100F600082E090E0E0916002F091610230E020E0E8
:100F7000B0E0A0E0309799F42115310509F44AC09A
:100F8000281B390B24303105D8F58A819B816115E6
:100F9000710589F1FB0193838283FE0111C04081B9
:100FA00051810281138148175907E0F0481759070A
:100FB00099F4109761F012960C93129713961C9364
:100FC0003296CF01DF91CF911F910F910895009339
:100FD000600210936102F4CF2115310551F04217E0
:100FE000530738F0A901DB019A01BD01DF01F801C7
:100FF000C1CFEF01F9CF9093610280936002CDCF12
:10100000FE01E20FF31F819391932250310939833E
:101010002883D7CF20915E0230915F02232B41F4C9
:10102000209102023091030230935F0220935E020E
:1010300020910002309101022115310541F42DB7B4
:101040003EB74091040250910502241B350BE091FC
:101050005E02F0915F02E217F307A0F42E1B3F0B34
:101060002817390778F0AC014E5F5F4F241735071A
:1010700048F04E0F5F1F50935F0240935E028193D2
:1010800091939FCFF0E0E0E09CCFCF93DF93009768
:10109000E9F0FC01329713821282A0916002B091B4
:1010A0006102ED0130E020E01097A1F42081318150
:1010B000820F931F20915E0230915F02281739073B
:1010C00009F061C0F0935F02E0935E02DF91CF917F
:1010D0000895EA01CE17DF07E8F54A815B819E019A
:1010E00041155105B1F7E901FB83EA834991599113
:1010F000C40FD51FEC17FD0761F480819181029622
:10110000840F951FE90199838883828193819B8352
:101110008A83F0E0E0E012968D919C9113970097FE
:10112000B9F52D913C911197CD010296820F931F35
:1011300020915E0230915F022817390739F6309707
:1011400051F51092610210926002B0935F02A09379
:101150005E02BCCFD383C28340815181840F951F2F
:10116000C817D90761F44E5F5F4F88819981480F96
:10117000591F518340838A819B81938382832115E8
:10118000310509F0B0CFF0936102E09360029ECF89
:10119000FD01DC01C0CF13821282D7CF4F925F9244
:1011A0006F927F928F929F92AF92BF92CF92DF9277
:1011B000EF92FF920F931F93CF93DF938C010097D1
:1011C00099F4CB01DF91CF911F910F91FF90EF9098
:1011D000DF90CF90BF90AF909F908F907F906F9057
:1011E0005F904F900C94A907FC01E60FF71F9C013C
:1011F00022503109E217F30708F4AEC0D901CD91AE
:10120000DC911197C617D70720F1C530D10578F0CA
:10121000CE0104978617970750F0C61BD70B22976D
:10122000C193D1936D937C93CF010E944508C8016F
:10123000DF91CF911F910F91FF90EF90DF90CF90B2
:10124000BF90AF909F908F907F906F905F904F90E6
:1012500008955B01AC1ABD0A4C018C0E9D1EA09135
:101260006002B0916102512C412CF12CE12C1097BD
:1012700031F580915E0290915F028815990509F021
:101280005CC04616570608F058C080910002909145
:101290000102009741F48DB79EB74091040250912E
:1012A0000502841B950BE817F90708F055C0F09369
:1012B0005F02E0935E02F90171836083B8CF8D9184
:1012C0009C91119712966C90129713967C9013979D
:1012D000A815B90559F56C0142E0C40ED11CCA1419
:1012E000DB0420F1AC014A195B09DA01129615976B
:1012F00080F06282738251834083D9016D937C9325
:10130000E114F10471F0D7011396FC93EE93129758
:101310008ECF22968C0F9D1FF90191838083F3015C
:10132000EFCFF0936102E093600281CF4816590637
:1013300008F42C017D01D3019ACFCB010E94A907AB
:101340007C01009749F0AE01B8010E94AF09C801C5
:101350000E94450887016BCF10E000E068CFFB01D9
:10136000DC0102C001900D9241505040D8F7089521
:10137000FB01DC0101900D920020E1F70895F89443
:02138000FFCF9D
:10138200000062028000000000008D05740164020A
:1013920063021F1C1F1E1F1E1F1F1E1F1E1F2D004C
:00000001FF
