:100000000C9435010C9466010C9466010C94660105
:100010000C9466010C9466010C9466010C946601C4
:100020000C9466010C9466010C9466010C946601B4
:100030000C9466010C9466010C9466010C946601A4
:100040000C9466010C9466010C9466010C94660194
:100050000C9466010C9466010C9466010C94E00506
:100060000C9466010C9466010C9466010C94660174
:100070000C9466010C9466010C9466010C94660164
:100080000C9466010C9466010C9466010C94660154
:100090000C9466010C9466010C9466010C94660144
:1000A0000C9466010C9466010C9466010C94660134
:1000B0000C9466010C9466010C9466010C94660124
:1000C0000C9466010C9466010C9466010C94660114
:1000D0000C9466010C9466010C9466010C94660104
:1000E0000C9466010C942C070C9458020C94910407
:1000F0000C9446020C94B8020C944C020C945B02D3
:100100000C9454020C9481020C9450020C947902C9
:100110000C94E9020C9473020C9492040C948602E1
:100120000C946B020C94DA050C947D020C946F0213
:100130000C9487020C9429030C948B020C94650296
:100140000C9461020C94FB010000210024002700A4
:100150002A002D00300033000101000004010701D6
:100160000A0100002200250028002B002E0031008B
:10017000340002010000050108010B01000020000D
:100180002300260029002C002F003200000100006F
:10019000030106010901050505050705080808080A
:1001A000020202020A0A080804040404010101010F
:1001B000010101010303030303030303040707070A
:1001C0000C0C0C0C0C0C0C0C0202020206060606AF
:1001D000060606060B0B0B0B0B0B0B0B010210207C
:1001E000200808102040102040800201020108046D
:1001F0000201010204081020408080402010080401
:100200000201800402018040201008040201080459
:10021000020101020408102040800102040810209D
:10022000408000000A0B02090C0D0E0807030401B0
:1002300000000000000000000000000000000000BE
:10024000000000000000000000000000000012118B
:10025000100000000000000000000000000000008E
:1002600000000000000000002C0711241FBECFEF8B
:10027000D1E2DEBFCDBF00E00CBF12E0A0E0B2E0F3
:10028000EAE5FFE000E00BBF02C007900D92A63543
:10029000B107D9F722E0A6E5B2E001C01D92AF3E5A
:1002A000B207E1F711E0C5E3D1E000E006C0219715
:1002B0000109802FFE010E94A307C433D10780E00B
:1002C0000807A9F70E942A060C94AB070C940000BB
:1002D00096E0899FD0011124A859BD4F90967C9338
:1002E0006E935F9791E091969C939197E091D502E0
:1002F000F091D6029091D402992339F0309751F0C1
:10030000811108C0809184021994309719F05C968D
:100310008C91FACF0895CF92DF92EF92FF920F93D4
:100320001F9396E0899FF0011124E859FD4F11A217
:10033000278D30A12130310551F178F0223031057F
:1003400009F451C02330310509F452C01F910F91B7
:10035000FF90EF90DF90CF9008956623B9F361E0AE
:1003600070E00E9468012FB7F89480916402909128
:100370006502A0916602B09167022FBF8093C00210
:100380009093C102A093C202B093C302DFCF9FB784
:10039000F894C0906402D0906502E0906602F090FC
:1003A00067029FBF0091C0021091C1022091C2025A
:1003B0003091C302C01AD10AE20AF30A0091D202B4
:1003C0001091D30230E020E00C151D052E053F05ED
:1003D00050F462E070E01F910F91FF90EF90DF907A
:1003E000CF900C9468016111B1CF63E070E0F3CF5E
:1003F00070E060E0F0CFAF92BF92CF92DF92EF92C9
:10040000FF920F931F93CF93DF936C017B018B01BE
:10041000040F151FEB015E01AE18BF08C017D1070E
:1004200059F06991D601ED91FC910190F081E02D98
:10043000C6011995892B79F7C501DF91CF911F91DD
:100440000F91FF90EF90DF90CF90BF90AF90089505
:100450008150823108F05AC0E82FF0E08827EC5C28
:10046000FD4F8F4F0C94A3075402580246024C02D2
:10047000500286025B02610265026B026F02730228
:1004800079027D028602810287028B0280918000C0
:100490008F77809380000895809180008F7DF9CFC1
:1004A00080918000877FF5CF84B58F7784BD0895D4
:1004B00084B58F7DFBCF8091B0008F778093B000A3
:1004C00008958091B0008F7DF9CF809190008F7753
:1004D000809390000895809190008F7DF9CF809156
:1004E0009000877FF5CF8091A0008F778093A00048
:1004F00008958091A0008F7DF9CF8091A000877F23
:10050000F5CF809120018F7780932001089580910D
:1005100020018F7DF9CF80912001877FF5CFCF9388
:10052000DF93282F30E0F901EE5DFD4F8491F90152
:10053000E452FE4FD491F901EA56FE4FC491CC2308
:10054000A1F081110E942802EC2FF0E0EE0FFF1FB6
:10055000E458FE4FA591B491EC91ED2381E090E039
:1005600009F480E0DF91CF91089580E090E0FACF28
:10057000862F0C948F021F93CF93DF93282F30E0A8
:10058000F901EE5DFD4F8491F901E452FE4FD491E3
:10059000F901EA56FE4FC491CC23A9F0162F811120
:1005A0000E942802EC2FF0E0EE0FFF1FEE59FE4FE5
:1005B000A591B4918FB7F894EC91111108C0D09522
:1005C000DE23DC938FBFDF91CF911F910895DE2B47
:1005D000F8CF862F642F0C94BB02CF93DF9390E06B
:1005E000FC01E452FE4F24918A569E4FFC018491F7
:1005F0008823C9F090E0880F991FFC01E85BFE4F4B
:10060000A591B491FC01EE59FE4FC591D4916111B1
:100610000DC09FB7F8948C91209582238C9388818C
:10062000282328839FBFDF91CF910895623051F432
:100630009FB7F8943C91822F809583238C93E88117
:100640002E2BEFCF8FB7F894EC912E2B2C938FBFDE
:10065000EACF862F642F0C94ED022F923F924F9297
:100660005F926F927F928F929F92AF92BF92CF9242
:10067000DF92EF92FF920F931F93CF93DF93222489
:100680002394812C912C5401839466246A94762CB3
:1006900056E0352E2092D4028FB7F8944091640230
:1006A0005091650260916602709167028FBF8091E0
:1006B000C4029091C502A091C602B091C702481B26
:1006C000590B6A0B7B0B8091D0029091D102B0E064
:1006D000A0E084179507A607B707E0F6C0E0809171
:1006E000CE02C81760F4E091CA02F091CB02EC0F81
:1006F000F11D62E080810E94ED02CF5FF0CF512CAE
:100700008091CF02581608F05FC0052D10E0E091EF
:10071000CC02F091CD02E00FF11F61E080810E94D8
:10072000ED02E091CC02F091CD02E00FF11F60E00C
:1007300080810E94BB02D501C401052C04C0880F32
:10074000991FAA1FBB1F0A94D2F76C017C01E09489
:10075000F094412C8091CE024816F8F4C42DD0E0DC
:10076000E091CA02F091CB02EC0FFD1F80810E9444
:100770008F022496CC0FDD1FC859DD4F892B41F421
:10078000888199818C299D29998388834394E2CF1C
:10079000888199818E219F21F7CFE091CC02F09141
:1007A000CD02E00FF11F61E080810E94BB028091C9
:1007B000CC029091CD02080F191F60E0F8018081F2
:1007C0000E94ED0253949CCFC8E6D2E0FE01878DD3
:1007D00090A1892B21F4148E768E658E11A2369607
:1007E00082E0E43AF80799F710E08091CE021817FA
:1007F00008F052C000E0E12EF12CEE0CFF1CF701D6
:10080000E059FD4F7F012091CF02021708F042C04E
:10081000F70160817181002E02C0769567950A9478
:10082000E2F7129F90011124200F311DE8E6F2E05B
:1008300080E0458D568D2417350709F470C08F5F11
:1008400036968A30B1F760FF23C0E8E6F2E090E028
:1008500080E0448D411117C0E091C802F091C902B7
:10086000E20FF31F6081389EF001399EF00D1124D4
:10087000E859FD4F648F368F258F10A2178E61E0E7
:100880000E948B0105C0019636968A30910509F7C2
:100890000F5FB9CF1F5FA9CF80E099A19111892F78
:1008A0002696F2E0C43ADF07C1F79FB7F89440916B
:1008B00064025091650260916602709167029FBF69
:1008C0004093C4025093C5026093C6027093C7025E
:1008D000882309F4DFCE80918902882309F4DACED7
:1008E0008091870290918802019709F0D3CE809180
:1008F0008402882309F4CECEDF91CF911F910F910E
:10090000FF90EF90DF90CF90BF90AF909F908F902F
:100910007F906F905F904F903F902F9008956170FF
:10092000AFCF089590E080E00895CF93DF93EC017E
:1009300060E08E810E94BB0261E08E810E94BB025A
:1009400060E08E810E94BB028BE891E00197F1F795
:10095000DF91CF910895CF92DF92EF92FF920F93A4
:100960001F93CF93DF936C017C0187E0E80EF11CAD
:10097000D0E0C0E0062F10E0B8010C2E02C0759543
:1009800067950A94E2F76170F70181917F010E94F7
:10099000BB022196C430D10579F7C601DF91CF9112
:1009A0001F910F91FF90EF90DF90CF900C949504E2
:1009B000CF92DF92EF92FF920F931F93CF93DF932B
:1009C000EC01F62E642F8C810E94BB028D818F3F3B
:1009D00019F060E00E94BB020F2D10E08F8584FFAC
:1009E00025C06E0187E0C80ED11CF12CE12CB801A6
:1009F0000E2C02C0759567950A94E2F76170F601B6
:100A000081916F010E94BB02FFEFEF1AFF0A88E09D
:100A1000E816F10461F7CE01DF91CF911F910F919C
:100A2000FF90EF90DF90CF900C949504B80184E094
:100A3000759567958A95E1F7CE010E94AB046F2DFD
:100A4000CE01DF91CF911F910F91FF90EF90DF903A
:100A5000CF900C94AB0440E0682F87ED92E00C94AB
:100A6000D80481E00E942B058BE39FE10197F1F709
:100A70000895CF93DF93823029F49091E602986035
:100A80009093E6028093EA021092EB0280E4809356
:100A9000EC0280E18093ED0280E58093EE0261E05C
:100AA0008091DB020E94ED028091DC028F3F19F001
:100AB00061E00E94ED0261E08091DD020E94ED02A2
:100AC000C7EDD2E09E01275D32408091E60284FDB1
:100AD0000BC084E090E021962817390744F461E0C8
:100AE0008E810E94ED02EECF88E090E0F4CF8BE3A0
:100AF0009DE00197F1F760E08091DB020E94BB026C
:100B000060E08091DD020E94BB028091DC028F3F99
:100B100019F060E00E94BB028091E60284FD34C0BF
:100B200063E087ED92E00E94AB04CBE4D6E4CE0113
:100B30000197F1F763E087ED92E00E94AB04219703
:100B4000F1F763E087ED92E00E94AB0483E592E069
:100B50000197F1F762E087ED92E00E94AB0480918B
:100B6000E60280620E942B0584E08093E7028CE01D
:100B70000E942B050E94310582E08093E80286E006
:100B8000DF91CF910C942B0580620E942B058BE4A2
:100B900096E40197F1F78091E60280620E942B05AE
:100BA00083E592E00197F1F78091E60280620E946E
:100BB0002B05D5CF41E00E94D80481E090E0089554
:100BC0001F920F920FB60F9211242F933F938F9382
:100BD0009F93AF93BF938091640290916502A0911F
:100BE0006602B091670230915A0223E0230F2D373D
:100BF00058F50196A11DB11D20935A0280936402FD
:100C000090936502A0936602B093670280915602AA
:100C100090915702A0915802B09159020196A11DDE
:100C2000B11D8093560290935702A0935802B0933F
:100C30005902BF91AF919F918F913F912F910F904A
:100C40000FBE0F901F90189526E8230F0296A11D46
:100C5000B11DD2CF789484B5826084BD84B58160A3
:100C600084BD85B5826085BD85B5816085BD809177
:100C70006E00816080936E001092810080918100EF
:100C800082608093810080918100816080938100E7
:100C9000809180008160809380008091B1008460A9
:100CA0008093B1008091B00081608093B00080910A
:100CB0009100826080939100809191008160809387
:100CC0009100809190008160809390008091A100BC
:100CD00082608093A1008091A10081608093A10037
:100CE0008091A00081608093A000809121018260AA
:100CF0008093210180912101816080932101809165
:100D0000200181608093200180917A00846080932B
:100D10007A0080917A00826080937A0080917A00D4
:100D2000816080937A0080917A00806880937A0055
:100D30001092C10082E00E9439050E94310503E64D
:100D400012E094E6E92E92E0F92EC0E0D0E0CC2447
:100D5000C394D12CE1E08091EA028111E0E0E195B9
:100D6000F0E0E952FD4F848980680E942B050E94C3
:100D70002D03B82E41E0682F87ED92E00E94D80441
:100D800083E6B81202C00E9431058B2D0B2C000C9B
:100D9000990BC0970A97A8F48DE5882E82E0982ECB
:100DA000F401B1924F010E942D03B82E41E0682F4B
:100DB00087ED92E00E94D8040815190589F7B092D2
:100DC0006302FAE2BF1225C0EDE5F2E0AEE2B2E066
:100DD00091918D91981323C0EE16FF06C9F780916B
:100DE0005B0290915C020197A1F0E091EA02E2308F
:100DF00088F5E150F0E0E952FD4F848980680E9457
:100E00002B0540E150E064E472E087ED92E00E943F
:100E1000FB01209709F49ECF0E9400009BCFE09138
:100E2000EA02E230A8F4E150F0E0E952FD4F848993
:100E300080680E942B054EE050E065E372E087ED8C
:100E400092E00E94FB01D0925C02C0925B02C7CF8D
:100E5000E1E0EACFE1E0CECF1092DA021092D902BF
:100E600086E292E09093D8028093D7028DE080933F
:100E7000DB028FEF8093DC028CE08093DD0288E060
:100E80008093DE0289E08093DF028AE08093E002B3
:100E90008BE08093E1021092E2021092E302109242
:100EA000E4021092E5021092E60281E00E94390508
:100EB00010926A0210926E0210926D0210926F02EE
:100EC0008CE192E09093690280936802E4E8F2E09A
:100ED0001082148213821582369682E0E03CF80775
:100EE000B9F784E092E09093CB028093CA0280E04D
:100EF00092E09093CD028093CC0284E08093CE0266
:100F00008093CF0288E092E09093C9028093C80258
:100F10008AE090E09093D1028093D00284EF91E038
:100F20009093D3028093D2021092D6021092D502EF
:100F30001092C4021092C5021092C6021092C7020B
:100F40001092D4020895EE0FFF1F881F8BBF0790E9
:0A0F5000F691E02D1994F894FFCFFC
:100F5A0003020100050607043132332D3435362ADF
:100F6A003738392F63303D2B000000002903E9028E
:100F7A00B80200000000DA05FB0192049104393836
:100F8A00333137303177726F6E67207061737377E0
:100F9A006F726400636F7272656374207061737339
:060FAA00776F7264000085
:00000001FF
