:100000000C9444010C9475010C9475010C947501C9
:100010000C9475010C9475010C9475010C94750188
:100020000C9475010C9475010C9475010C94750178
:100030000C9475010C9475010C9475010C94750168
:100040000C9475010C9475010C9475010C94750158
:100050000C9475010C9475010C9475010C94E208D4
:100060000C9475010C94AC080C9482080C947501E6
:100070000C9475010C9475010C9475010C94750128
:100080000C9475010C9475010C9475010C94750118
:100090000C9475010C9475010C9475010C94750108
:1000A0000C9475010C9475010C9475010C947501F8
:1000B0000C9475010C9475010C9475010C947501E8
:1000C0000C9475010C9475010C9475010C947501D8
:1000D0000C9475010C9475010C9475010C947501C8
:1000E0000C9475010C946D030C94D6010C94F901D9
:1000F0000C94A9010C9409030C9416030C9410039E
:100100000C943B030C9426070C9424030C940103D9
:100110000C9420030C9432030C948C020C94E50193
:100120000C94530C0C943C030C9405030C942E0378
:100130000C949A010C9407020C943F020C94360321
:100140000C941A030C94D0050C94DE030C94280331
:100150000C94FB020C940D030C942C090C9440039A
:100160000C949E0300002100240027002A002D008B
:100170003000330001010000040107010A01000002
:100180002200250028002B002E003100340002013F
:100190000000050108010B010000200023002600DB
:1001A00029002C002F00320000010000030106018D
:1001B00009010505050507050808080802020202ED
:1001C0000A0A0808040404040101010101010101F3
:1001D0000303030303030303040707070C0C0C0CBE
:1001E0000C0C0C0C020202020606060606060606A7
:1001F0000B0B0B0B0B0B0B0B010210202008081034
:100200002040102040800201020108040201010286
:10021000040810204080804020100804020180045F
:1002200002018040201008040201080402010102BA
:1002300004081020408001020408102040800000C3
:100240000A0B02090C0D0E08070304010000000050
:10025000000000000000000000000000000000009E
:10026000000000000000000000001211100000005B
:10027000000000000000000000000000000000007E
:10028000000000002C09530C11241FBECFEFD1E257
:10029000DEBFCDBF00E00CBF24E0A6EEB2E001C09F
:1002A0001D92AE39B207E1F712E0A0E0B2E0EAE554
:1002B000FDE100E00BBF02C007900D92A63EB10722
:1002C000D9F711E0C3E4D1E000E006C021970109AD
:1002D000802FFE010E94740CC234D10780E0080711
:1002E000A9F70E940A0A0C949B0E0C94000096E059
:1002F000899FD0011124AD5EBB4F90967C936E9385
:100300005F9791E091969C939197E0918004F09192
:10031000810490917F04992339F0309751F0811135
:1003200008C080912F041994309719F05C968C9135
:10033000FACF08950895DB0114964D915C911597BD
:100340006D917C91DC01ED91FC910280F381E02DB7
:100350001994AF92BF92CF92DF92EF92FF920F93D8
:100360001F93CF93DF936C017B018B01040F151F4B
:10037000EB015E01AE18BF08C017D10759F06991B3
:10038000D601ED91FC910190F081E02DC601199507
:10039000892B79F7C501DF91CF911F910F91FF90C4
:1003A000EF90DF90CF90BF90AF900895FC01538DF8
:1003B000448D252F30E0842F90E0821B930B54173F
:1003C00010F0CF96089501970895FC01918D828DCC
:1003D000981761F0A28DAE0FBF2FB11D5D968C9165
:1003E000928D9F5F9F73928F90E008958FEF9FEFA4
:1003F0000895FC01918D828D981731F0828DE80F60
:10040000F11D858D90E008958FEF9FEF0895FC0119
:10041000918D228D892F90E0805C9F4F821B9109E6
:100420008F739927089582EF92E00E94070221E0DE
:10043000892B09F420E0822F0895FC01A48DA80FD8
:10044000B92FB11DA35ABF4F2C91848D90E0019616
:100450008F739927848FA689B7892C93A089B18936
:100460008C91837080648C93938D848D981306C0D7
:100470000288F389E02D80818F7D80830895EF923B
:10048000FF920F931F93CF93DF93EC0181E0888F4E
:100490009B8D8C8D98131AC0E889F989808185FF1E
:1004A00015C09FB7F894EE89FF896083E889F989C0
:1004B00080818370806480839FBF81E090E0DF91C2
:1004C000CF911F910F91FF90EF900895F62E0B8D15
:1004D00010E00F5F1F4F0F731127E02E8C8D8E11D0
:1004E0000CC00FB607FCFACFE889F989808185FF37
:1004F000F5CFCE010E941D02F1CFEB8DEC0FFD2F49
:10050000F11DE35AFF4FF0829FB7F8940B8FEA89F1
:10051000FB8980818062CFCFCF93DF93EC01888D00
:100520008823B9F0AA89BB89E889F9898C9185FD6E
:1005300003C0808186FD0DC00FB607FCF7CF8C91FC
:1005400085FFF2CF808185FFEDCFCE010E941D0295
:10055000E9CFDF91CF91089580E090E0892B29F0D9
:100560000E94130281110E94000080E090E0892B1C
:1005700049F080E090E0892B29F00E940000811171
:100580000E94000080E090E0892B49F080E090E03C
:10059000892B29F00E94000081110E94000080E058
:1005A00090E0892B49F080E090E0892B29F00E94AF
:1005B000000081110C94000008958150823108F0F0
:1005C0005AC0E82FF0E08827E751FD4F8F4F0C9479
:1005D000740C09030D03FB02010305033B03100325
:1005E00016031A032003240328032E0332033B03BC
:1005F00036033C034003809180008F778093800016
:100600000895809180008F7DF9CF80918000877F51
:10061000F5CF84B58F7784BD089584B58F7DFBCFEA
:100620008091B0008F778093B00008958091B000E2
:100630008F7DF9CF809190008F77809390000895FF
:10064000809190008F7DF9CF80919000877FF5CFCA
:100650008091A0008F778093A00008958091A000E2
:100660008F7DF9CF8091A000877FF5CF8091200109
:100670008F77809320010895809120018F7DF9CF9D
:1006800080912001877FF5CFCF93DF93282F30E033
:10069000F901E25CFD4F8491F901E850FE4FD491DD
:1006A000F901EE54FE4FC491CC23A1F081110E94B8
:1006B000DD02EC2FF0E0EE0FFF1FE856FE4FA59194
:1006C000B491EC91ED2381E090E009F480E0DF91BA
:1006D000CF91089580E090E0FACF862F0C944403E8
:1006E0001F93CF93DF93282F30E0F901E25CFD4F99
:1006F0008491F901E850FE4FD491F901EE54FE4F78
:10070000C491CC23A9F0162F81110E94DD02EC2F99
:10071000F0E0EE0FFF1FE258FE4FA591B4918FB7A6
:10072000F894EC91111108C0D095DE23DC938FBFB3
:10073000DF91CF911F910895DE2BF8CF862F642F84
:100740000C947003CF93DF9390E0FC01E850FE4FD0
:1007500024918E549E4FFC0184918823C9F090E02F
:10076000880F991FFC01EC59FE4FA591B491FC0133
:10077000E258FE4FC591D49161110DC09FB7F89416
:100780008C91209582238C938881282328839FBF76
:10079000DF91CF910895623051F49FB7F8943C9166
:1007A000822F809583238C93E8812E2BEFCF8FB7F8
:1007B000F894EC912E2B2C938FBFEACF862F642FC9
:1007C0000C94A2032FB7F8946091EB027091EC02A5
:1007D0008091ED029091EE022FBF08950F931F9329
:1007E0000E94E2036093FA027093FB028093FC0282
:1007F0009093FD0282EF92E00E94E50197FF1DC0F9
:100800000E94E2030091FA021091FB022091FC0287
:100810003091FD02601B710B820B930B0091F6026D
:100820001091F7022091F8023091F90260177107D8
:1008300082079307F8F28FEF9FEF1F910F910895B2
:100840000F931F93CF93DF93C82FD62F86E0C89FB7
:10085000F0011124ED5EFB4F11A2878D90A1813034
:100860009105F1F058F082309105F1F1039709F408
:1008700040C0DF91CF911F910F9108956623C9F376
:1008800061E070E08C2F0E9477010E94E203609388
:100890006B0470936C0480936D0490936E04E9CFA5
:1008A0000E94E20300916B0410916C0420916D048E
:1008B00030916E04AB01BC01401B510B620B730BFA
:1008C00080917D0490917E04B0E0A0E084179507AC
:1008D000A607B70748F462E070E08C2FDF91CF9154
:1008E0001F910F910C94770163E070E0D111C1CF9B
:1008F000F4CF70E060E0F1CF2F923F924F925F9281
:100900006F927F928F929F92AF92BF92CF92DF921F
:10091000EF92FF920F931F93CF93DF9322242394A0
:10092000812C912C5401839466246A94762C56E091
:10093000352E20927F040E94E20300916F041091F3
:1009400070042091710430917204AB01BC01401B12
:10095000510B620B730B80917B0490917C04B0E08F
:10096000A0E084179507A607B70718F7C0E08091A5
:100970007904C81760F4E0917504F0917604EC0FE7
:10098000F11D62E080810E94A203CF5FF0CF512C65
:1009900080917A04581608F05FC0052D10E0E091B0
:1009A0007704F0917804E00FF11F61E080810E94EC
:1009B000A203E0917704F0917804E00FF11F60E06A
:1009C00080810E947003D501C401052C04C0880FEA
:1009D000991FAA1FBB1F0A94D2F76C017C01E094F7
:1009E000F094412C809179044816F8F4C42DD0E09D
:1009F000E0917504F0917604EC0FFD1F80810E9458
:100A000044032496CC0FDD1FCD5EDB4F892B41F4D0
:100A1000888199818C299D29998388834394E2CF89
:100A2000888199818E219F21F7CFE0917704F09101
:100A30007804E00FF11F61E080810E9470038091D3
:100A4000770490917804080F191F60E0F801808105
:100A50000E94A20353949CCFC3E1D4E0FE01878D92
:100A600090A1892B21F4148E768E658E11A2369674
:100A700084E0EF34F80799F710E0809179041817B3
:100A800008F052C000E0E12EF12CEE0CFF1CF70143
:100A9000E55EFB4F7F0120917A04021708F042C007
:100AA000F70160817181002E02C0769567950A94E6
:100AB000E2F7129F90011124200F311DE3E1F4E0D1
:100AC00080E0458D568D2417350709F467C08F5F88
:100AD00036968A30B1F760FF23C0E3E1F4E090E09E
:100AE00080E0448D411117C0E0917304F0917404CB
:100AF000E20FF31F6081389EF001399EF00D112442
:100B0000ED5EFB4F648F368F258F10A2178E61E04C
:100B10000E94200405C0019636968A30910509F797
:100B20000F5FB9CF1F5FA9CF10E089A18111182FE6
:100B30002696F4E0CF34DF07C1F70E94E20360930A
:100B40006F04709370048093710490937204112366
:100B500009F4EFCE80913404882309F4EACE809121
:100B6000320490913304019709F0E3CE80912F0471
:100B7000882309F4DECEDF91CF911F910F91FF9072
:100B8000EF90DF90CF90BF90AF909F908F907F902D
:100B90006F905F904F903F902F9008956170B8CF05
:100BA00090E080E00895CF93DF93EC0160E08E81C8
:100BB0000E94700361E08E810E94700360E08E816C
:100BC0000E9470038BE891E00197F1F7DF91CF91DC
:100BD0000895CF92DF92EF92FF920F931F93CF93DE
:100BE000DF936C017C0187E0E80EF11CD0E0C0E0EF
:100BF000062F10E0B8010C2E02C0759567950A9477
:100C0000E2F76170F70181917F010E9470032196E4
:100C1000C430D10579F7C601DF91CF911F910F91B3
:100C2000FF90EF90DF90CF900C94D305CF92DF929E
:100C3000EF92FF920F931F93CF93DF93EC01F62E69
:100C4000642F8C810E9470038D818F3F19F060E0CA
:100C50000E9470030F2D10E08F8584FF25C06E0168
:100C600087E0C80ED11CF12CE12CB8010E2C02C07B
:100C7000759567950A94E2F76170F60181916F01AD
:100C80000E947003FFEFEF1AFF0A88E0E816F104F4
:100C900061F7CE01DF91CF911F910F91FF90EF90FF
:100CA000DF90CF900C94D305B80184E075956795DB
:100CB0008A95E1F7CE010E94E9056F2DCE01DF9103
:100CC000CF911F910F91FF90EF90DF90CF900C94F8
:100CD000E90540E0682F82E894E00C94160681E074
:100CE0000E9469068BE39FE10197F1F70895CF9386
:100CF000DF93613029F09091910498609093910472
:100D0000609395041092960490E4909397048093D6
:100D10009804805C8093990461E0809186040E942D
:100D2000A203809187048F3F19F061E00E94A20323
:100D300061E0809188040E94A203C2E8D4E09E0191
:100D4000225834408091910484FD0BC084E090E0EF
:100D500021962817390744F461E08E810E94A2038E
:100D6000EECF88E090E0F4CF8BE39DE00197F1F7C0
:100D700060E0809186040E94700360E080918804A6
:100D80000E947003809187048F3F19F060E00E94F9
:100D900070038091910484FD34C063E082E894E0A4
:100DA0000E94E905CBE4D6E4CE010197F1F763E0B8
:100DB00082E894E00E94E9052197F1F763E082E878
:100DC00094E00E94E90583E592E00197F1F762E083
:100DD00082E894E00E94E9058091910480620E947B
:100DE000690684E0809392048CE00E9469060E9468
:100DF0006F0682E08093930486E0DF91CF910C949C
:100E0000690680620E9469068BE496E40197F1F717
:100E10008091910480620E94690683E592E00197C7
:100E2000F1F78091910480620E946906D5CF90917C
:100E30009504691710F06FEF690FE62FF0E0EE5799
:100E4000FB4F9489890F80680C94690641E00E94E9
:100E5000160681E090E00895FB0101900020E9F77B
:100E60003197AF01461B570BDC01ED91FC910280DD
:100E7000F381E02D1994CF93DF93BC0182EF92E0D0
:100E80000E942C07EC0166E472E082EF92E00E947F
:100E90002C078C0F9D1FDF91CF910895DC01ED9100
:100EA000FC91119760919503709196033097D9F05A
:100EB00061157105A9F414968D919C91892BB1F05F
:100EC000808190E008958091990390919A03892BF5
:100ED00069F0FB01808190E09195819591090895D9
:100EE000CF010C948B0E6115710569F790E080E0DD
:100EF0000895CF93DF93EC01809195039091960331
:100F00000097E9F06881798161157105B1F0409130
:100F10009703509198032C813D814217530768F045
:100F20000E94940E8C819D8190939A0380939903E3
:100F30001D821C82DF91CF9108950E94180D888137
:100F4000998190939603809395038A819B819093D6
:100F50009803809397038C819D8190939A0380934B
:100F60009903198218821B821A82E2CFFC018081C8
:100F70009181009711F00C94180D08950F931F9311
:100F8000CF93DF93EC0188819981009759F02A81F2
:100F90003B812617370730F081E0DF91CF911F9119
:100FA0000F9108958B016F5F7F4F0E94A10D0097F5
:100FB00059F0998388831B830A832C813D81232BDD
:100FC00059F7FC011082E8CF80E0E7CFEF92FF9263
:100FD0000F931F93CF93DF931F921F92CDB7DEB76E
:100FE0008C0169831A82FC01E480F580FFEFEF1A1F
:100FF000FF0AB7010E94BE07882381F0F801208113
:10100000318184819581BE016F5F7F4F820F931F75
:101010000E94940EF801F582E48281E00F900F9017
:10102000DF91CF911F910F91FF90EF900895EF9274
:10103000FF920F931F93CF93DF93EC017B018A0103
:10104000BA010E94BE0728813981811114C021157F
:10105000310519F0C9010E94180D198218821D82EC
:101060001C821B821A82CE01DF91CF911F910F91BA
:10107000FF90EF9008951D830C83B701C9010E9472
:10108000940EF1CFFC01118210821382128215821C
:10109000148250E040E068E472E00C941708CF93AB
:1010A000DF93EC010E9442080E94EE0397FD05C009
:1010B000682FCE010E94E607F7CFCE01DF91CF91D6
:1010C0000895CF93DF93EC01FB018617970749F052
:1010D000608171816115710541F0448155810E94E3
:1010E0001708CE01DF91CF910895888199810097EB
:1010F00011F00E94180D198218821D821C821B8219
:101100001A82EFCF1F920F920FB60F9211240BB6D7
:101110000F922F933F934F935F936F937F938F9390
:101120009F93AF93BF93EF93FF9382EF92E00E9460
:101130001D02FF91EF91BF91AF919F918F917F9190
:101140006F915F914F913F912F910F900BBE0F9038
:101150000FBE0F901F9018951F920F920FB60F920F
:1011600011240BB60F922F938F939F93EF93FF93BE
:10117000E0910203F09103038081E0910803F09174
:10118000090382FD1DC0908180910B038F5F8F73D7
:1011900020910C03821741F0E0910B03F0E0EE5038
:1011A000FD4F958F80930B03FF91EF919F918F914E
:1011B0002F910F900BBE0F900FBE0F901F901895A0
:1011C0008081F2CF1F920F920FB60F9211242F93AE
:1011D0003F938F939F93AF93BF938091EB02909136
:1011E000EC02A091ED02B091EE023091EA0223E010
:1011F000230F2D3758F50196A11DB11D2093EA024A
:101200008093EB029093EC02A093ED02B093EE0278
:101210008091E6029091E702A091E802B091E90284
:101220000196A11DB11D8093E6029093E702A09361
:10123000E802B093E902BF91AF919F918F913F91E6
:101240002F910F900FBE0F901F90189526E8230F37
:101250000296A11DB11DD2CF0F931F93CF93DF93A1
:101260001092F5021092F40288EE93E0A0E0B0E054
:101270008093F6029093F702A093F802B093F902DC
:1012800082E292E09093F3028093F20285EC90E088
:101290009093FF028093FE0284EC90E09093010310
:1012A0008093000380EC90E090930303809302030B
:1012B00081EC90E0909305038093040382EC90E02E
:1012C000909307038093060386EC90E090930903C4
:1012D0008093080310920B0310920C0310920D03DD
:1012E00010920E0310928504109284048EE392E013
:1012F000909383048093820483E2809386048FEF2B
:101300008093870484E28093880488E28093890430
:1013100089E280938A048AE280938B048BE2809333
:101320008C0410928D0410928E0410928F041092EF
:1013300090041092910461E080E10E94770610927F
:101340001504109219041092180410921A0484E3E0
:1013500092E09093140480931304EFE2F4E010827F
:10136000148213821582369684E0EB36F807B9F7BB
:1013700084E092E0909376048093750480E092E09C
:10138000909378048093770484E080937904809329
:101390007A0488E092E090937404809373048AE066
:1013A00090E090937C0480937B0484EF91E0909391
:1013B0007E0480937D041092810410928004109228
:1013C0006F041092700410927104109272041092C3
:1013D0007F04C7EDD3E003E114E0CE010E94420890
:1013E00026960C171D07C9F7CBE9D3E0CE010E9462
:1013F0004208269683E0C73DD807C1F785E993E008
:101400000E9442088FE893E0DF91CF911F910F91E6
:101410000C944208CF93DF9300D000D0CDB7DEB755
:10142000789484B5826084BD84B5816084BD85B5BF
:10143000826085BD85B5816085BD80916E008160CB
:1014400080936E0010928100809181008260809371
:101450008100809181008160809381008091800073
:101460008160809380008091B10084608093B1009E
:101470008091B00081608093B00080919100826083
:101480008093910080919100816080939100809180
:1014900090008160809390008091A1008260809391
:1014A000A1008091A10081608093A1008091A000A3
:1014B00081608093A000809121018260809321014E
:1014C00080912101816080932101809120018160C0
:1014D0008093200180917A00846080937A008091CB
:1014E0007A00826080937A0080917A008160809394
:1014F0007A0080917A00806880937A001092C1000F
:1015000064E084E10E9477060E946F06E091020386
:10151000F091030382E08083E091FE02F091FF02EC
:101520001082E0910003F09101038FEC8083109210
:101530000A03E0910603F091070386E08083E091BF
:101540000403F0910503808180618083E0910403AE
:10155000F0910503808188608083E0910403F0911D
:101560000503808180688083E0910403F091050386
:1015700080818F7D808326E0322E89E492E00E9474
:101580003B070E947C048B32E9F134F48A3209F47F
:10159000C0C00E94AC02F1CF8D3209F404C18F3279
:1015A000C1F785E892E00E943B0797EDE92E93E0B2
:1015B000F92E0BE913E0D12CC12C8091EF02909110
:1015C000F002C816D9060CF0A4C0B70182EF92E071
:1015D0000E949B01B80182EF92E00E949B0166E4A9
:1015E00072E082EF92E00E942C078FE892E00E9466
:1015F0003B078FEFC81AD80A96E0E90EF11C0A5F84
:101600001F4FDBCF0E946F0660E080E00E9417074B
:1016100061E672E082EF92E00E942C0782EF92E096
:101620000E940702892BD1F3CE0101960E944F0838
:10163000CE0101960E947907CE0101960E94B6075D
:1016400065E973E082E894E00E949B010E947C04BB
:10165000182F8093F10261E080E00E94170741E0BB
:10166000612F82E894E00E94160650E040E068E4B2
:1016700072E08FE893E00E941708612F8FE893E0F3
:101680000E94E60701E08091F1028D33C1F00E94D3
:101690007C04182F8093F10261E0802F0E941707CD
:1016A00041E0612F82E894E00E9416061D3329F084
:1016B000612F8FE893E00E94E6070F5FE4CF00916F
:1016C000EF021091F002309E7001319EF00C112457
:1016D00065E973E0C70189529C4F0E9461086FE879
:1016E00073E0C70185569C4F0E9461080F5F1F4F32
:1016F0001093F0020093EF020E946F0660E080E01A
:101700000E94170767E772E082E894E00E942C07C6
:1017100040CF0E946F0660E080E00E94170763E9F7
:1017200072E082EF92E00E942C0782EF92E00E942A
:101730000702892BD1F3CE0101960E944F08CE01FA
:1017400001960E947907CE0101960E94B60707ED27
:1017500013E0F12CE12C8091EF029091F002E81659
:10176000F9060CF016CFF801248135818091990398
:1017700090919A032817390781F4C8010E944E07F7
:10178000892B59F43E9CB0013F9C700D1124655685
:101790007C4F82E894E00E949B01FFEFEF1AFF0A62
:1017A0000A5F1F4FD8CF0E946F0660E080E00E9462
:1017B00017076AEA72E082EF92E00E942C0782EF3C
:1017C00092E00E940702892BD1F3CE0101960E947C
:1017D0004F08CE0101960E947907CE0101960E9422
:1017E000B607E090EF02F090F002A0909903B0905D
:1017F0009A0387EDC82E83E0D82E10E000E00E1586
:101800001F050CF04DC0F601848195818A159B055A
:1018100009F040C0C6010E944E07892BD9F5309EC1
:101820005001319EB00C1124D12CC12C912C812C53
:10183000F1E0EF1AF108C50189529C4F3C01F50116
:10184000E556FC4F2F01F6E08F0E911C0E151F057B
:10185000D4F40F5F1F4FB40169527C4F6A0D7B1D9A
:10186000C3018C0D9D1D0E946108B40165567C4F1B
:101870006A0D7B1DC2018C0D9D1D0E94610886E0D2
:10188000C80ED11CE0CFF092F002E092EF0263ECC0
:1018900072E03ACF0F5F1F4F96E0C90ED11CAFCF59
:1018A00063ED72E031CFCF93DF938FE893E00E9436
:1018B000B60785E993E00E94B607C7EDD3E0269707
:1018C000CE010E94B60783E0CB39D807C1F7C3E148
:1018D000D4E02697CE010E94B60783E0C73DD80723
:1018E000C1F7DF91CF910895EE0FFF1F881F8BBFC7
:1018F0000790F691E02D19940F931F93CF93DF93E8
:101900008230910510F482E090E0E0919C04F09127
:101910009D0430E020E0B0E0A0E0309799F421157C
:10192000310509F44AC0281B390B24303105D8F59C
:101930008A819B816115710589F1FB019383828303
:10194000FE0111C04081518102811381481759075E
:10195000E0F04817590799F4109761F012960C932C
:10196000129713961C933296CF01DF91CF911F915E
:101970000F91089500939C0410939D04F4CF2115BA
:10198000310551F04217530738F0A901DB019A01E4
:10199000BD01DF01F801C1CFEF01F9CF90939D04A4
:1019A00080939C04CDCFFE01E20FF31F81939193AE
:1019B0002250310939832883D7CF20919A0430915E
:1019C0009B04232B41F420911A0230911B02309387
:1019D0009B0420939A04209118023091190221153A
:1019E000310541F42DB73EB740911C0250911D02C4
:1019F000241B350BE0919A04F0919B04E217F30746
:101A0000A0F42E1B3F0B2817390778F0AC014E5F6E
:101A10005F4F2417350748F04E0F5F1F50939B040C
:101A200040939A04819391939FCFF0E0E0E09CCFA4
:101A3000CF93DF930097E9F0FC0132971382128273
:101A4000A0919C04B0919D04ED0130E020E010973E
:101A5000A1F420813181820F931F20919A0430914B
:101A60009B042817390709F061C0F0939B04E093A9
:101A70009A04DF91CF910895EA01CE17DF07E8F5C8
:101A80004A815B819E0141155105B1F7E901FB8354
:101A9000EA8349915991C40FD51FEC17FD0761F4F2
:101AA000808191810296840F951FE9019983888333
:101AB000828193819B838A83F0E0E0E012968D918E
:101AC0009C9113970097B9F52D913C911197CD01F9
:101AD0000296820F931F20919A0430919B0428173D
:101AE000390739F6309751F510929D0410929C04F5
:101AF000B0939B04A0939A04BCCFD383C28340814C
:101B00005181840F951FC817D90761F44E5F5F4F4D
:101B100088819981480F591F518340838A819B8115
:101B2000938382832115310509F0B0CFF0939D0492
:101B3000E0939C049ECFFD01DC01C0CF1382128292
:101B4000D7CF4F925F926F927F928F929F92AF9278
:101B5000BF92CF92DF92EF92FF920F931F93CF939A
:101B6000DF938C01009799F4CB01DF91CF911F9106
:101B70000F91FF90EF90DF90CF90BF90AF909F902C
:101B80008F907F906F905F904F900C947C0CFC0135
:101B9000E60FF71F9C0122503109E217F30708F402
:101BA000AEC0D901CD91DC911197C617D70720F1AE
:101BB000C530D10578F0CE0104978617970750F00D
:101BC000C61BD70B2297C193D1936D937C93CF0102
:101BD0000E94180DC801DF91CF911F910F91FF90C6
:101BE000EF90DF90CF90BF90AF909F908F907F90BD
:101BF0006F905F904F9008955B01AC1ABD0A4C0145
:101C00008C0E9D1EA0919C04B0919D04512C412CE2
:101C1000F12CE12C109731F580919A0490919B045E
:101C20008815990509F05CC04616570608F058C09B
:101C30008091180290911902009741F48DB79EB7D8
:101C400040911C0250911D02841B950BE817F90767
:101C500008F055C0F0939B04E0939A04F901718356
:101C60006083B8CF8D919C91119712966C901297CA
:101C700013967C901397A815B90559F56C0142E0AD
:101C8000C40ED11CCA14DB0420F1AC014A195B0953
:101C9000DA011296159780F0628273825183408335
:101CA000D9016D937C93E114F10471F0D70113967F
:101CB000FC93EE9312978ECF22968C0F9D1FF90105
:101CC00091838083F301EFCFF0939D04E0939C0414
:101CD00081CF4816590608F42C017D01D3019ACF13
:101CE000CB010E947C0C7C01009749F0AE01B80149
:101CF0000E94820EC8010E94180D87016BCF10E070
:101D000000E068CFFB01DC0102C001900D92415060
:101D10005040D8F70895FB01DC018D9101908019A6
:101D20000110D9F3990B0895FB01DC0101900D928C
:101D30000020E1F7089511E0C3E4D1E000E006C01F
:101D4000802FFE010E94740C2196011DC434D1071E
:0A1D500080E00807A9F7F894FFCF20
:101D5A000E0F10110D0C0B0A3738392F3435362A6D
:101D6A003132332D63303D2B00009E048000000089
:101D7A0000003F02A901D6018C020702E501F90120
:101D8A0000000000DE039E036D030000000026072A
:101D9A00A901D0059A010D0A005768617420646F81
:101DAA0020796F75207769736820746F20646F3F9C
:101DBA0000436F6E74616374206E616D6520746F89
:101DCA00206164643A2000436F6E74616374206119
:101DDA006464656400436F6E74616374733A002DC2
:101DEA002D2D00436F6E74616374206E616D6520E2
:101DFA00746F2066696E643A2000436F6E74616383
:101E0A0074206E616D6520746F2064656C657465FD
:101E1A003A2000436F6E746163742064656C657464
:101E2A00656400436F6E74616374206E6F7420661C
:061E3A006F756E640000EC
:00000001FF
