:100000000C943A010C946B010C946B010C946B01F1
:100010000C946B010C946B010C946B010C946B01B0
:100020000C946B010C946B010C946B010C946B01A0
:100030000C946B010C946B010C946B010C946B0190
:100040000C946B010C946B010C946B010C946B0180
:100050000C946B010C946B010C946B010C948C034D
:100060000C946B010C9400040C94D6030C946B015B
:100070000C946B010C946B010C946B010C946B0150
:100080000C946B010C946B010C946B010C946B0140
:100090000C946B010C946B010C946B010C946B0130
:1000A0000C946B010C946B010C946B010C946B0120
:1000B0000C946B010C946B010C946B010C946B0110
:1000C0000C946B010C946B010C946B010C946B0100
:1000D0000C946B010C946B010C946B010C946B01F0
:1000E0000C946B010C94AB050C94DE050C94790513
:1000F0000C9453030C947C030C9460030C94C8017F
:100100000C94F7050C94AF020C9474030C945C03EC
:100110000C9462020C9478030C946E030C944F03BD
:100120000C94C9050C944B030C948C010C9486031D
:100130000C9414060C94B8050C946A030C94660392
:100140000C9435030C942A020C9456030C94350637
:100150000C949D050C9430030C9447030C9482037B
:100160000C94B9010C94A2050C94DC0100000A0B5C
:1001700002090C0D0E080703040100000000000036
:10018000000000000000000000000000000000006F
:10019000000000000000000012111000000000002C
:1001A000000000000000000000000000000000004F
:1001B000000000002200250028002B002E00310046
:1001C000340002010000050108010B0100002100BC
:1001D000240027002A002D00300033000101000018
:1001E000040107010A0105050505070508080808B7
:1001F000020202020A0A08080404040401010101BF
:1002000001010101030303030303030304070707B9
:100210000C0C0C0C0C0C0C0C02020202060606065E
:10022000060606060B0B0B0B0B0B0B0B010210202B
:10023000200808102040102040800201020108041C
:1002400002010102040810204080804020100804B0
:100250000201800402018040201008040201080409
:10026000020101020408102040800102040810204D
:100270004080350611241FBECFEFD1E2DEBFCDBFD7
:1002800000E00CBF22E0A4E2B2E001C01D92AA3C53
:10029000B207E1F712E0A0E0B2E0ECE0FDE000E040
:1002A0000BBF02C007900D92A432B107D9F711E03D
:1002B000CAE3D1E000E006C021970109802FFE01CA
:1002C0000E947C06C933D10780E00807A9F70E9485
:1002D00036040C9484060C94000090E0FC01E45D6C
:1002E000FD4F24918A519E4FFC018491882399F0FF
:1002F00090E0880F991FFC01E453FE4FA591B49143
:10030000FC01EE54FE4F859194918FB7F894EC91D7
:10031000E22BEC938FBF0895AF92BF92CF92DF9202
:10032000EF92FF920F931F93CF93DF936C017B01AA
:100330008B01040F151FEB015E01AE18BF08C0173B
:10034000D10759F06991D601ED91FC910190F081AE
:10035000E02DC6011995892B79F7C501DF91CF9161
:100360001F910F91FF90EF90DF90CF90BF90AF90D3
:100370000895FC01538D448D252F30E0842F90E0AB
:10038000821B930B541710F0CF9608950197089590
:10039000FC01918D828D981761F0A28DAE0FBF2F59
:1003A000B11D5D968C91928D9F5F9F73928F90E0AF
:1003B00008958FEF9FEF0895FC01918D828D98171E
:1003C00031F0828DE80FF11D858D90E008958FEF5B
:1003D0009FEF08952FB7F8948091290290912A02F7
:1003E000A0912B02B0912C022FBF809335029093E5
:1003F0003602A0933702B09338028DE292E00E9459
:10040000DC0197FF26C02FB7F894809129029091C4
:100410002A02A0912B02B0912C022FBF40913502ED
:10042000509136026091370270913802841B950B0F
:10043000A60BB70B4091310250913202609133020A
:100440007091340284179507A607B707B0F28FEFB3
:100450009FEF0895FC01918D228D892F90E0805CA3
:100460009F4F821B91098F73992708958DE292E027
:100470000E942A0221E0892B09F420E0822F0895AE
:10048000FC01A48DA80FB92FB11DA35ABF4F2C9109
:10049000848D90E001968F739927848FA689B78900
:1004A0002C93A089B1898C91837080648C93938DF7
:1004B000848D981306C00288F389E02D80818F7D9A
:1004C00080830895EF92FF920F931F93CF93DF9352
:1004D000EC0181E0888F9B8D8C8D98131AC0E88980
:1004E000F989808185FF15C09FB7F894EE89FF894F
:1004F0006083E889F98980818370806480839FBFED
:1005000081E090E0DF91CF911F910F91FF90EF90EC
:100510000895F62E0B8D10E00F5F1F4F0F731127FC
:10052000E02E8C8D8E110CC00FB607FCFACFE88937
:10053000F989808185FFF5CFCE010E944002F1CF7D
:10054000EB8DEC0FFD2FF11DE35AFF4FF0829FB7AB
:10055000F8940B8FEA89FB8980818062CFCFCF939B
:10056000DF93EC01888D8823B9F0AA89BB89E889DB
:10057000F9898C9185FD03C0808186FD0DC00FB681
:1005800007FCF7CF8C9185FFF2CF808185FFEDCFFF
:10059000CE010E944002E9CFDF91CF91089580E023
:1005A00090E0892B29F00E94360281110E94000000
:1005B00080E090E0892B49F080E090E0892B29F0E1
:1005C0000E94000081110E94000080E090E0892BD1
:1005D00049F080E090E0892B29F00E940000811111
:1005E0000E94000080E090E0892B49F080E090E0DC
:1005F000892B29F00E94000081110C9400000895BD
:10060000282F30E0F901E459FE4F9491F901E45D9F
:10061000FD4F44912A513E4FF9012491222309F4C0
:1006200035C0992311F191509231F8F4E92FF0E09F
:100630008827E25EFC4F8F4F0C947C064F035303D8
:10064000300347034B03350356035C036003660323
:100650006A036E037403780335037C038203860305
:10066000809180008F7780938000E22FF0E0EE0F82
:10067000FF1FEE54FE4FA591B4918FB7F894EC9103
:10068000611148C040954E234C938FBF08958091CF
:1006900080008F7DE8CF80918000877FE4CF84B594
:1006A0008F7784BDE2CF84B58F7DFBCF8091B00082
:1006B0008F778093B000D9CF8091B0008F7DF9CF34
:1006C000809190008F7780939000CFCF80919000A1
:1006D0008F7DF9CF80919000877FF5CF8091A0002A
:1006E0008F778093A000C1CF8091A0008F7DF9CF3C
:1006F0008091A000877FF5CF809120018F77809334
:100700002001B3CF809120018F7DF9CF809120010E
:10071000877FF5CF4E2BB8CF1F920F920FB60F9257
:1007200011242F933F938F939F93AF93BF93809107
:10073000290290912A02A0912B02B0912C023091B3
:10074000280223E0230F2D3758F50196A11DB11D76
:10075000209328028093290290932A02A0932B02CF
:10076000B0932C028091240290912502A091260240
:10077000B09127020196A11DB11D80932402909390
:100780002502A0932602B0932702BF91AF919F91BB
:100790008F913F912F910F900FBE0F901F90189542
:1007A00026E8230F0296A11DB11DD2CF1F920F92F2
:1007B0000FB60F9211240BB60F922F933F934F93C6
:1007C0005F936F937F938F939F93AF93BF93EF93B9
:1007D000FF938DE292E00E944002FF91EF91BF9162
:1007E000AF919F918F917F916F915F914F913F91C9
:1007F0002F910F900BBE0F900FBE0F901F9018956A
:100800001F920F920FB60F9211240BB60F922F93D7
:100810008F939F93EF93FF93E0913D02F0913E02FF
:100820008081E0914302F091440282FD1DC09081DD
:10083000809146028F5F8F7320914702821741F0AB
:10084000E0914602F0E0E35DFD4F958F8093460214
:10085000FF91EF919F918F912F910F900BBE0F9071
:100860000FBE0F901F9018958081F2CF789484B5B9
:10087000826084BD84B5816084BD85B5826085BD9C
:1008800085B5816085BD80916E00816080936E002A
:10089000109281008091810082608093810080911C
:1008A00081008160809381008091800081608093CD
:1008B00080008091B10084608093B1008091B0008D
:1008C00081608093B000809191008260809391005C
:1008D000809191008160809391008091900081606F
:1008E000809390008091A10082608093A10080910C
:1008F000A10081608093A1008091A000816080931D
:10090000A0008091210182608093210180912101CA
:10091000816080932101809120018160809320017A
:1009200080917A00846080937A0080917A0082605E
:1009300080937A0080917A00816080937A00809120
:100940007A00806880937A001092C10086E30E944A
:100950006D0187E30E946D0188E30E946D0189E3C8
:100960000E946D018AE30E946D018BE30E946D017C
:100970008CE30E946D018DE30E946D018EE30E9465
:100980006D01E0913D02F0913E0282E08083E091B2
:100990003902F0913A021082E0913B02F0913C0260
:1009A0008FEC808310924502E0914102F091420267
:1009B00086E08083E0913F02F09140028081806177
:1009C0008083E0913F02F0914002808188608083C3
:1009D000E0913F02F0914002808180688083E09145
:1009E0003F02F091400280818F7D80838DE292E012
:1009F0000E942A02892B09F459C00E94EA01FC01D5
:100A000097FD5EC08D32910521F0C0970A9708F0DE
:100A100050C0C12CD12C7601C0E0E130F105D9F0F5
:100A2000ED32F10509F44AC0CF01C0970A9798F456
:100A3000AAE0B0E0A70196010E9462066F01FF0FD5
:100A4000EE08FF08C60ED71EE81EF91E80E3C81A7E
:100A5000D108E108F1088DE292E00E94C8010E94ED
:100A6000EA01FC01C0970A97C0F2E130F105A9F252
:100A7000CC2341F0F094E094D094C094C11CD11CDC
:100A8000E11CF11C8AE0C816D104F4F04EE050E0FD
:100A900062E172E08DE292E00E948C0142E050E05F
:100AA00061E272E08DE292E00E948C010E94CF022E
:100AB0009DCF8DE292E00E94C8019FCFC1E0CBCFD5
:100AC000C12CD12C7601DECFF6013197E930F1054A
:100AD00068F761E08827E059FA4F8F4F0C947C0645
:100AE00079059D05A205AB05B805C905DE05F70525
:100AF00014068EE30E94000360E08DE30E94000371
:100B000060E08CE30E94000360E08BE30E9400033E
:100B100060E08AE30E94000360E089E30E94000332
:100B200060E088E30E94000360E087E30E94000326
:100B300060E086E30E940003B9CF8EE30E940003C9
:100B400061E0DBCF8EE30E94000361E08DE30E9451
:100B5000000361E0D6CF8EE30E94000361E08DE3E5
:100B60000E94000361E08CE30E94000361E0CDCFAE
:100B70008EE30E94000361E08DE30E94000361E0C8
:100B80008CE30E94000361E08BE30E94000361E0BC
:100B9000C0CF8EE30E94000361E08DE30E9400035A
:100BA00061E08CE30E94000361E08BE30E9400039C
:100BB00061E08AE30E94000361E0AFCF8EE30E9410
:100BC000000361E08DE30E94000361E08CE30E947A
:100BD000000361E08BE30E94000361E08AE30E946E
:100BE000000361E089E30E94000361E09ACF8EE395
:100BF0000E94000361E08DE30E94000361E08CE34A
:100C00000E94000361E08BE30E94000361E08AE33D
:100C10000E94000361E089E30E94000361E088E331
:100C20000E94000361E081CF8EE30E94000361E037
:100C30008DE30E94000361E08CE30E94000361E009
:100C40008BE30E94000361E08AE30E94000361E0FD
:100C500089E30E94000361E088E30E94000361E0F1
:100C600087E30E94000361E064CFEDE2F2E01382CB
:100C7000128288EE93E0A0E0B0E084839583A6839F
:100C8000B78384E092E09183808385EC90E0958740
:100C9000848784EC90E09787868780EC90E0918B46
:100CA000808B81EC90E0938B828B82EC90E0958B33
:100CB000848B86EC90E0978B868B118E128E138E30
:100CC000148E08950E946D06A59F900DB49F900DFF
:100CD000A49F800D911D11240895A29FB001B39F80
:100CE000C001A39F700D811D1124911DB29F700D35
:100CF000811D1124911D0895EE0FFF1F881F8BBFCA
:0C0D00000790F691E02D1994F894FFCFB5
:100D0C000000000062028C01B901AF022A02C80186
:100D1C00DC01496E76616C6964206E756D6265727A
:040D2C00000D0A00AC
:00000001FF
