:100000000C9435010C9466010C9466010C94660105
:100010000C9466010C9466010C9466010C946601C4
:100020000C9466010C9466010C9466010C946601B4
:100030000C9466010C9466010C9466010C946601A4
:100040000C9466010C9466010C9466010C94660194
:100050000C9466010C9466010C9466010C945B068A
:100060000C9466010C9466010C9466010C94660174
:100070000C9466010C9466010C9466010C94660164
:100080000C9466010C9466010C9466010C94660154
:100090000C9466010C9466010C9466010C94660144
:1000A0000C9466010C9466010C9466010C94660134
:1000B0000C9466010C9466010C9466010C94660124
:1000C0000C9466010C9466010C9466010C94660114
:1000D0000C9466010C9466010C9466010C94660104
:1000E0000C9466010C9464020C94F2020C94FE07CA
:1000F0000C94FB010C946A020C9482020C94590239
:100100000C9432030C9486020C9455060C948F02C6
:100110000C9474020C9455020C949B040C94780279
:100120000C944F020C9490020C949A040C947C0250
:100130000C948A020C9494020C94C1020C945D02FB
:100140000C9461020C946E02000021002400270030
:100150002A002D00300033000101000004010701D6
:100160000A0100002200250028002B002E0031008B
:10017000340002010000050108010B01000020000D
:100180002300260029002C002F003200000100006F
:10019000030106010901050505050705080808080A
:1001A000020202020A0A080804040404010101010F
:1001B000010101010303030303030303040707070A
:1001C0000C0C0C0C0C0C0C0C0202020206060606AF
:1001D000060606060B0B0B0B0B0B0B0B010210207C
:1001E000200808102040102040800201020108046D
:1001F0000201010204081020408080402010080401
:100200000201800402018040201008040201080459
:10021000020101020408102040800102040810209D
:10022000408000000A0B02090C0D0E0807030401B0
:1002300000000000000000000000000000000000BE
:10024000000000000000000000000000000012118B
:10025000100000000000000000000000000000008E
:100260000000000000000000FE0711241FBECFEFB9
:10027000D1E2DEBFCDBF00E00CBF22E0A6E3B2E0DA
:1002800001C01D92AF3CB207E1F712E0A0E0B2E07E
:10029000E4EEF5E100E00BBF02C007900D92A6333B
:1002A000B107D9F711E0C5E3D1E000E006C021971E
:1002B0000109802FFE010E94BE08C433D10780E0EF
:1002C0000807A9F70E94A5060C94F00A0C940000F8
:1002D00096E0899FD0011124AC5BBD4F90967C9332
:1002E0006E935F9791E091969C939197E091B10204
:1002F000F091B2029091B002992339F0309751F009
:10030000811108C0809160021994309719F05C96B1
:100310008C91FACF0895CF92DF92EF92FF920F93D4
:100320001F9396E0899FF0011124EC5BFD4F11A211
:10033000278D30A12130310551F178F0223031057F
:1003400009F451C02330310509F452C01F910F91B7
:10035000FF90EF90DF90CF9008956623B9F361E0AE
:1003600070E00E9468012FB7F8948091400290914C
:100370004102A0914202B09143022FBF80939C02A0
:1003800090939D02A0939E02B0939F02DFCF9FB7F0
:10039000F894C0904002D0904102E0904202F09068
:1003A00043029FBF00919C0210919D0220919E02EA
:1003B00030919F02C01AD10AE20AF30A0091AE02FC
:1003C0001091AF0230E020E00C151D052E053F0511
:1003D00050F462E070E01F910F91FF90EF90DF907A
:1003E000CF900C9468016111B1CF63E070E0F3CF5E
:1003F00070E060E0F0CFAF92BF92CF92DF92EF92C9
:10040000FF920F931F93CF93DF936C017B018B01BE
:10041000040F151FEB015E01AE18BF08C017D1070E
:1004200059F06991D601ED91FC910190F081E02D98
:10043000C6011995892B79F7C501DF91CF911F91DD
:100440000F91FF90EF90DF90CF90BF90AF90089505
:10045000FC01448155816081718183EB92E00C94B1
:10046000FB018150823108F05AC0E82FF0E0882764
:10047000E35CFD4F8F4F0C94BE085D0261024F029A
:10048000550259028F0264026A026E0274027802F7
:100490007C02820286028F028A029002940280917C
:1004A00080008F77809380000895809180008F7DF9
:1004B000F9CF80918000877FF5CF84B58F7784BD99
:1004C000089584B58F7DFBCF8091B0008F778093A6
:1004D000B00008958091B0008F7DF9CF8091900099
:1004E0008F77809390000895809190008F7DF9CF51
:1004F00080919000877FF5CF8091A0008F778093C7
:10050000A00008958091A0008F7DF9CF8091A00078
:10051000877FF5CF809120018F7780932001089508
:10052000809120018F7DF9CF80912001877FF5CFC9
:10053000CF93DF93282F30E0F901EE5DFD4F8491DA
:10054000F901E452FE4FD491F901EA56FE4FC491ED
:10055000CC23A1F081110E943102EC2FF0E0EE0FCC
:10056000FF1FE458FE4FA591B491EC91ED2381E07B
:1005700090E009F480E0DF91CF91089580E090E071
:10058000FACF862F0C9498021F93CF93DF93282FD6
:1005900030E0F901EE5DFD4F8491F901E452FE4F28
:1005A000D491F901EA56FE4FC491CC23A9F0162F3D
:1005B00081110E943102EC2FF0E0EE0FFF1FEE5987
:1005C000FE4FA591B4918FB7F894EC91111108C02A
:1005D000D095DE23DC938FBFDF91CF911F910895DB
:1005E000DE2BF8CF862F642F0C94C402CF93DF93B9
:1005F00090E0FC01E452FE4F24918A569E4FFC018C
:1006000084918823C9F090E0880F991FFC01E85B72
:10061000FE4FA591B491FC01EE59FE4FC591D491C6
:1006200061110DC09FB7F8948C91209582238C9313
:100630008881282328839FBFDF91CF91089562305E
:1006400051F49FB7F8943C91822F809583238C932B
:10065000E8812E2BEFCF8FB7F894EC912E2B2C93B3
:100660008FBFEACF862F642F0C94F6022F923F9211
:100670004F925F926F927F928F929F92AF92BF92B2
:10068000CF92DF92EF92FF920F931F93CF93DF935E
:1006900022242394812C912C5401839466246A94FF
:1006A000762C56E0352E2092B0028FB7F894409108
:1006B00040025091410260914202709143028FBF0B
:1006C0008091A0029091A102A091A202B091A302F8
:1006D000481B590B6A0B7B0B8091AC029091AD02C9
:1006E000B0E0A0E084179507A607B707E0F6C0E0E2
:1006F0008091AA02C81760F4E091A602F091A702C7
:10070000EC0FF11D62E080810E94F602CF5FF0CF16
:10071000512C8091AB02581608F05FC0052D10E0F7
:10072000E091A802F091A902E00FF11F61E0808141
:100730000E94F602E091A802F091A902E00FF11FD9
:1007400060E080810E94C402D501C401052C04C070
:10075000880F991FAA1FBB1F0A94D2F76C017C0156
:10076000E094F094412C8091AA024816F8F4C42D2C
:10077000D0E0E091A602F091A702EC0FFD1F80816E
:100780000E9498022496CC0FDD1FCC5BDD4F892B95
:1007900041F4888199818C299D2999838883439488
:1007A000E2CF888199818E219F21F7CFE091A80225
:1007B000F091A902E00FF11F61E080810E94C40264
:1007C0008091A8029091A902080F191F60E0F8011A
:1007D00080810E94F60253949CCFC4E4D2E0FE01D3
:1007E000878D90A1892B21F4148E768E658E11A2AF
:1007F000369682E0E038F80799F710E08091AA0277
:10080000181708F052C000E0E12EF12CEE0CFF1C8E
:10081000F701E45BFD4F7F012091AB02021708F066
:1008200042C0F70160817181002E02C07695679504
:100830000A94E2F7129F90011124200F311DE4E485
:10084000F2E080E0458D568D2417350709F470C01D
:100850008F5F36968A30B1F760FF23C0E4E4F2E0A0
:1008600090E080E0448D411117C0E091A402F09126
:10087000A502E20FF31F6081389EF001399EF00D52
:100880001124EC5BFD4F648F368F258F10A2178EDD
:1008900061E00E948B0105C0019636968A30910571
:1008A00009F70F5FB9CF1F5FA9CF80E099A1911120
:1008B000892F2696F2E0C038DF07C1F79FB7F8947A
:1008C0004091400250914102609142027091430276
:1008D0009FBF4093A0025093A1026093A202709325
:1008E000A302882309F4DFCE80916502882309F4EE
:1008F000DACE8091630290916402019709F0D3CE21
:1009000080916002882309F4CECEDF91CF911F91B0
:100910000F91FF90EF90DF90CF90BF90AF909F909E
:100920008F907F906F905F904F903F902F900895A1
:100930006170AFCF089590E080E00895FC01808160
:100940009181009711F00C9476090895CF92DF926F
:10095000EF92FF920F931F93CF93DF93CDB7DEB744
:1009600062970FB6F894DEBF0FBECDBF8C01CB01EE
:10097000F8011182108213821282158214824AE0D9
:100980009E012F5F3F4F6901B9010E947508F60172
:1009900001900020E9F731977F01EC18FD08F8017C
:1009A00080819181009729F0228133812E153F05A6
:1009B00090F4B7016F5F7F4F0E94FF09F801009725
:1009C00099F091838083F382E28224813581232B05
:1009D00011F4FC011082F801F582E482B6018081F5
:1009E00091810E94E90A0DC080819181009711F0E8
:1009F0000E947609F80111821082158214821382F6
:100A0000128262960FB6F894DEBF0FBECDBFDF91A3
:100A1000CF911F910F91FF90EF90DF90CF900895AD
:100A2000CF93DF93EC0160E08E810E94C40261E00D
:100A30008E810E94C40260E08E810E94C4028BE815
:100A400091E00197F1F7DF91CF910895CF92DF9276
:100A5000EF92FF920F931F93CF93DF936C017C0172
:100A600087E0E80EF11CD0E0C0E0062F10E0B801EE
:100A70000C2E02C0759567950A94E2F76170F70134
:100A800081917F010E94C4022196C430D10579F77B
:100A9000C601DF91CF911F910F91FF90EF90DF90F2
:100AA000CF900C941005CF92DF92EF92FF920F93AC
:100AB0001F93CF93DF93EC01F62E642F8C810E945D
:100AC000C4028D818F3F19F060E00E94C4020F2D97
:100AD00010E08F8584FF25C06E0187E0C80ED11C11
:100AE000F12CE12CB8010E2C02C0759567950A9483
:100AF000E2F76170F60181916F010E94C402FFEF7D
:100B0000EF1AFF0A88E0E816F10461F7CE01DF91E1
:100B1000CF911F910F91FF90EF90DF90CF900C94A9
:100B20001005B80184E0759567958A95E1F7CE01C7
:100B30000E9426056F2DCE01DF91CF911F910F915D
:100B4000FF90EF90DF90CF900C94260540E0682F47
:100B500083EB92E00C94530581E00E94A6058BE3A1
:100B60009FE10197F1F70895CF93DF93823029F445
:100B70009091C20298609093C2028093C602109234
:100B8000C70280E48093C80280E18093C90280E5B7
:100B90008093CA0261E08091B7020E94F6028091C0
:100BA000B8028F3F19F061E00E94F60261E0809187
:100BB000B9020E94F602C3EBD2E09E01235B3240F1
:100BC0008091C20284FD0BC084E090E0219628173A
:100BD000390744F461E08E810E94F602EECF88E08E
:100BE00090E0F4CF8BE39DE00197F1F760E0809116
:100BF000B7020E94C40260E08091B9020E94C40260
:100C00008091B8028F3F19F060E00E94C402809189
:100C1000C20284FD34C063E083EB92E00E942605AB
:100C2000CBE4D6E4CE010197F1F763E083EB92E0E9
:100C30000E9426052197F1F763E083EB92E00E9482
:100C4000260583E592E00197F1F762E083EB92E0FD
:100C50000E9426058091C20280620E94A60584E05F
:100C60008093C3028CE00E94A6050E94AC0582E03E
:100C70008093C40286E0DF91CF910C94A605806238
:100C80000E94A6058BE496E40197F1F78091C202D9
:100C900080620E94A60583E592E00197F1F78091BA
:100CA000C20280620E94A605D5CF41E00E94530592
:100CB00081E090E008951F920F920FB60F921124D9
:100CC0002F933F938F939F93AF93BF938091400255
:100CD00090914102A0914202B091430230913A02B8
:100CE00023E0230F2D3758F50196A11DB11D209348
:100CF0003A028093400290934102A0934202B09343
:100D000043028091360290913702A0913802B0914F
:100D100039020196A11DB11D8093360290933702CE
:100D2000A0933802B0933902BF91AF919F918F91F8
:100D30003F912F910F900FBE0F901F90189526E8AE
:100D4000230F0296A11DB11DD2CFCF93DF9300D008
:100D500000D0CDB7DEB7789484B5826084BD84B509
:100D6000816084BD85B5826085BD85B5816085BDA6
:100D700080916E00816080936E001092810080915E
:100D800081008260809381008091810081608093E6
:100D90008100809180008160809380008091B1000B
:100DA00084608093B1008091B00081608093B00036
:100DB0008091910082608093910080919100816088
:100DC0008093910080919000816080939000809149
:100DD000A10082608093A1008091A1008160809336
:100DE000A1008091A00081608093A00080912101EA
:100DF0008260809321018091210181608093210193
:100E00008091200181608093200180917A0084602C
:100E100080937A0080917A00826080937A0080913A
:100E20007A00816080937A0080917A008068809354
:100E30007A001092C10082E00E94B4050E94AC05C5
:100E40009AE0A92E20E0E22E20E0F22ECC24C394DA
:100E5000D12C80913E0290913F02892B89F4E1E0F0
:100E60008091C6028111E0E0E195F0E0ED54FD4F84
:100E7000848980680E94A605D0923F02C0923E02FB
:100E80000E943603B82E41E0682F83EB92E00E9467
:100E9000530583E6B81202C00E94AC050B2D0B2C43
:100EA000000C110B005311090A301105F8F40E94CF
:100EB0003603B82E082E000C990BC0978A30910586
:100EC00008F08FC0A09E9001A19E300D11248C01CE
:100ED000020F131F88248394912C41E06B2D83EB28
:100EE00092E00E9453058A94892809F38DE3B81291
:100EF0006BC0E091C602E23008F07EC0E150F0E045
:100F0000ED54FD4F848980680E94A60580913D02C2
:100F10008F3299F480913B0290913C02B8010E947B
:100F2000AA08CE0101960E94A604CE0101960E9455
:100F30002802CE0101960E949E0480913D028A32D1
:100F4000B9F480913B0290913C02089FB001099F47
:100F5000700D189F700D1124CE0101960E94A604F9
:100F6000CE0101960E942802CE0101960E949E04A5
:100F700080913D028B3291F460913B0270913C0272
:100F8000600F711FCE0101960E94A604CE0101964A
:100F90000E942802CE0101960E949E0480913D028B
:100FA0008D3291F460913B0270913C02601B710B99
:100FB000CE0101960E94A604CE0101960E9428024D
:100FC000CE0101960E949E04B0923D0210933C0215
:100FD00000933B02E114F10409F43BCF0E940000AE
:100FE00038CF41E050E064E372E083EB92E00E948E
:100FF000FB01912C812C71CFE1E081CF1092B602E0
:101000001092B5028CE292E09093B4028093B30206
:101010008DE08093B7028FEF8093B8028CE08093CD
:10102000B90288E08093BA0289E08093BB028AE02B
:101030008093BC028BE08093BD021092BE0210929E
:10104000BF021092C0021092C1021092C20281E04F
:101050000E94B4051092460210924A021092490270
:1010600010924B0282E292E09093450280934402F8
:10107000E0E6F2E01082148213821582369682E056
:10108000EC39F807B9F784E092E09093A7028093D7
:10109000A60280E092E09093A9028093A80284E0E7
:1010A0008093AA028093AB0288E092E09093A5021D
:1010B0008093A4028AE090E09093AD028093AC020A
:1010C00084EF91E09093AF028093AE021092B2024F
:1010D0001092B1021092A0021092A1021092A202EC
:1010E0001092A3021092B0020895BB274A3031F447
:1010F000992322F4BDE2909581959F4F0C9481082D
:10110000BB27FB015527AA27880F991FAA1FA417E1
:1011100010F0A41B83955051B9F7A05DAA3308F0D5
:10112000A95DA193009779F7B111B1931192CB0109
:101130000C949A08DC01FC01672F71917723E1F789
:10114000329704C07C916D9370836291AE17BF0794
:10115000C8F3089597FB072E16F4009407D077FD87
:1011600009D00E94C60807FC05D03EF490958195F1
:101170009F4F0895709561957F4F0895EE0FFF1F63
:10118000881F8BBF0790F691E02D1994AA1BBB1BFB
:1011900051E107C0AA1FBB1FA617B70710F0A61B77
:1011A000B70B881F991F5A95A9F780959095BC0198
:1011B000CD0108950F931F93CF93DF938230910554
:1011C00010F482E090E0E091CD02F091CE0230E0A8
:1011D00020E0B0E0A0E0309799F42115310509F442
:1011E0004AC0281B390B24303105D8F58A819B81F0
:1011F0006115710589F1FB0193838283FE0111C0A2
:10120000408151810281138148175907E0F0481746
:10121000590799F4109761F012960C931297139650
:101220001C933296CF01DF91CF911F910F910895BA
:101230000093CD021093CE02F4CF2115310551F069
:101240004217530738F0A901DB019A01BD01DF0104
:10125000F801C1CFEF01F9CF9093CE028093CD0278
:10126000CDCFFE01E20FF31F8193919322503109FC
:1012700039832883D7CF2091CB023091CC02232B06
:1012800041F420911A0230911B023093CC0220933A
:10129000CB0220911802309119022115310541F439
:1012A0002DB73EB740911C0250911D02241B350BF7
:1012B000E091CB02F091CC02E217F307A0F42E1BD1
:1012C0003F0B2817390778F0AC014E5F5F4F2417AA
:1012D000350748F04E0F5F1F5093CC024093CB026E
:1012E000819391939FCFF0E0E0E09CCFCF93DF9389
:1012F0000097E9F0FC01329713821282A091CD028F
:10130000B091CE02ED0130E020E01097A1F42081F1
:101310003181820F931F2091CB023091CC0228178C
:10132000390709F061C0F093CC02E093CB02DF9162
:10133000CF910895EA01CE17DF07E8F54A815B8176
:101340009E0141155105B1F7E901FB83EA834991FB
:101350005991C40FD51FEC17FD0761F4808191816D
:101360000296840F951FE901998388838281938176
:101370009B838A83F0E0E0E012968D919C91139715
:101380000097B9F52D913C911197CD010296820FEE
:10139000931F2091CB023091CC022817390739F6E0
:1013A000309751F51092CE021092CD02B093CC023C
:1013B000A093CB02BCCFD383C28340815181840FE1
:1013C000951FC817D90761F44E5F5F4F88819981D7
:1013D000480F591F518340838A819B819383828365
:1013E0002115310509F0B0CFF093CE02E093CD0284
:1013F0009ECFFD01DC01C0CF13821282D7CF4F9266
:101400005F926F927F928F929F92AF92BF92CF9294
:10141000DF92EF92FF920F931F93CF93DF938C0194
:10142000009799F4CB01DF91CF911F910F91FF901D
:10143000EF90DF90CF90BF90AF909F908F907F9074
:101440006F905F904F900C94DA08FC01E60FF71F45
:101450009C0122503109E217F30708F4AEC0D9010C
:10146000CD91DC911197C617D70720F1C530D10572
:1014700078F0CE0104978617970750F0C61BD70B5C
:101480002297C193D1936D937C93CF010E947609EB
:10149000C801DF91CF911F910F91FF90EF90DF90E6
:1014A000CF90BF90AF909F908F907F906F905F9004
:1014B0004F9008955B01AC1ABD0A4C018C0E9D1E25
:1014C000A091CD02B091CE02512C412CF12CE12CF7
:1014D000109731F58091CB029091CC028815990537
:1014E00009F05CC04616570608F058C080911802F3
:1014F00090911902009741F48DB79EB740911C025C
:1015000050911D02841B950BE817F90708F055C090
:10151000F093CC02E093CB02F90171836083B8CFE2
:101520008D919C91119712966C90129713967C90C6
:101530001397A815B90559F56C0142E0C40ED11CEA
:10154000CA14DB0420F1AC014A195B09DA011296D6
:10155000159780F06282738251834083D9016D9325
:101560007C93E114F10471F0D7011396FC93EE9390
:1015700012978ECF22968C0F9D1FF9019183808345
:10158000F301EFCFF093CE02E093CD0281CF481666
:10159000590608F42C017D01D3019ACFCB010E949A
:1015A000DA087C01009749F0AE01B8010E94E00A18
:1015B000C8010E94760987016BCF10E000E068CF78
:1015C000FB01DC0102C001900D9241505040D8F760
:1015D0000895FB01DC0101900D920020E1F70895D0
:0415E000F894FFCFAD
:1015E40003020100050607043132332D3435362A4F
:1015F4003738392F63303D2B0000CF0280000000C4
:1016040000003203F202C102000000005506FB0193
:061614009B049A04200073
:00000001FF
