:100000000C942E010C945F010C945F010C945F0121
:100010000C945F010C945F010C945F010C945F01E0
:100020000C945F010C945F010C945F010C945F01D0
:100030000C945F010C945F010C945F010C945F01C0
:100040000C945F010C945F010C945F010C945F01B0
:100050000C945F010C945F010C945F010C94FA0402
:100060000C945F010C94C4040C949A040C945F01EA
:100070000C945F010C945F010C945F010C945F0180
:100080000C945F010C945F010C945F010C945F0170
:100090000C945F010C945F010C945F010C945F0160
:1000A0000C945F010C945F010C945F010C945F0150
:1000B0000C945F010C945F010C945F010C945F0140
:1000C0000C945F010C945F010C945F010C945F0130
:1000D0000C945F010C945F010C945F010C945F0120
:1000E0000C945F010C9463020C942C030C94940404
:1000F0000C9430030C9403030C9410030C94280309
:100100000C941E030C9480010C94D0010C94BC013F
:100110000C94E4020C941A030C943A030C94FB0222
:100120000C9414030C9416020C9444050C94400394
:100130000C9436030C94FF020C94DE010C94AD0178
:100140000C9441030C9422030C940A030C940703AF
:100150000C94E90200000A0B02090C0D0E080703BB
:10016000040100000000000000000000000000008A
:10017000000000000000000000000000000000007F
:10018000121110000000000000000000000000003C
:100190000000000000000000000000002200250018
:1001A00028002B002E003100340002010000050160
:1001B00008010B0100002100240027002A002D0067
:1001C0003000330001010000040107010A010505A8
:1001D0000505070508080808020202020A0A0808BD
:1001E00004040404010101010101010103030303EB
:1001F00003030303040707070C0C0C0C0C0C0C0C7A
:100200000202020206060606060606060B0B0B0B8A
:100210000B0B0B0B010210202008081020401020AF
:1002200040800201020108040201010204081020BA
:1002300040808040201008040201800402018040B8
:100240002010080402010804020101020408102021
:1002500040800102040810204080440511241FBE84
:10026000CFEFD1E2DEBFCDBF00E00CBF12E0A0E0D7
:10027000B2E0E8ECFDE000E00BBF02C007900D9299
:10028000A834B107D9F723E0A8E4B2E001C01D9279
:10029000A031B207E1F711E0CEE2D1E000E006C004
:1002A00021970109802FFE010E94DA06CD32D10785
:1002B00080E00807A9F70E948E050C94E2060C94D2
:1002C000000090E0FC01EC5EFD4F249182539E4FB4
:1002D000FC018491882399F090E0880F991FFC011C
:1002E000EC54FE4FA591B491FC01E656FE4F85916A
:1002F00094918FB7F894EC91E22BEC938FBF089513
:10030000AF92BF92CF92DF92EF92FF920F931F9323
:10031000CF93DF936C017B018B01040F151FEB0161
:100320005E01AE18BF08C017D10759F06991D60118
:10033000ED91FC910190F081E02DC6011995892B7A
:1003400079F7C501DF91CF911F910F91FF90EF9049
:10035000DF90CF90BF90AF900895FC01538D448DF6
:10036000252F30E0842F90E0821B930B541710F060
:10037000CF96089501970895FC01918D828D98176D
:1003800061F0A28DAE0FBF2FB11D5D968C91928D45
:100390009F5F9F73928F90E008958FEF9FEF089576
:1003A000FC01918D828D981731F0828DE80FF11D3F
:1003B000858D90E008958FEF9FEF0895FC01918D5A
:1003C000228D892F90E0805C9F4F821B91098F7353
:1003D000992708958BE592E00E94DE0121E0892BA8
:1003E00009F420E0822F0895FC01A48DA80FB92FF5
:1003F000B11DA35ABF4F2C91848D90E001968F734D
:100400009927848FA689B7892C93A089B1898C916B
:10041000837080648C93938D848D981306C00288BA
:10042000F389E02D80818F7D80830895EF92FF9284
:100430000F931F93CF93DF93EC0181E0888F9B8D07
:100440008C8D98131AC0E889F989808185FF15C0C1
:100450009FB7F894EE89FF896083E889F9898081E4
:100460008370806480839FBF81E090E0DF91CF91B3
:100470001F910F91FF90EF900895F62E0B8D10E0D5
:100480000F5F1F4F0F731127E02E8C8D8E110CC044
:100490000FB607FCFACFE889F989808185FFF5CF8F
:1004A000CE010E94F401F1CFEB8DEC0FFD2FF11D79
:1004B000E35AFF4FF0829FB7F8940B8FEA89FB89CC
:1004C00080818062CFCFCF93DF93EC01888D88232A
:1004D000B9F0AA89BB89E889F9898C9185FD03C0A7
:1004E000808186FD0DC00FB607FCF7CF8C9185FF8C
:1004F000F2CF808185FFEDCFCE010E94F401E9CFDC
:10050000DF91CF91089580E090E0892B29F00E943F
:10051000EA0181110E94000080E090E0892B49F0FF
:1005200080E090E0892B29F00E94000081110E9458
:10053000000080E090E0892B49F080E090E0892B7A
:1005400029F00E94000081110E94000080E090E0EC
:10055000892B49F080E090E0892B29F00E9400006F
:1005600081110C9400000895282F30E0F901EC5A15
:10057000FE4F9491F901EC5EFD4F449122533E4FA2
:10058000F9012491222309F435C0992311F19150E6
:100590009231F8F4E92FF0E08827EE52FD4F8F4FAB
:1005A0000C94DA0603030703E402FB02FF02E902EC
:1005B0000A03100314031A031E03220328032C0347
:1005C000E902300336033A03809180008F778093ED
:1005D0008000E22FF0E0EE0FFF1FE656FE4FA591E0
:1005E000B4918FB7F894EC91611148C040954E23B7
:1005F0004C938FBF0895809180008F7DE8CF8091CC
:100600008000877FE4CF84B58F7784BDE2CF84B547
:100610008F7DFBCF8091B0008F778093B000D9CFD2
:100620008091B0008F7DF9CF809190008F7780937B
:100630009000CFCF809190008F7DF9CF8091900076
:10064000877FF5CF8091A0008F778093A000C1CFE6
:100650008091A0008F7DF9CF8091A000877FF5CF9A
:10066000809120018F7780932001B3CF809120016A
:100670008F7DF9CF80912001877FF5CF4E2BB8CFAA
:10068000089590E080E00895FB0101900020E9F7D3
:100690003197AF01461B570BDC01ED91FC910280B5
:1006A000F381E02D1994CF93DF93EC0160E08E810C
:1006B0000E94B40261E08E810E94B40260E08E81EB
:1006C0000E94B4028BE891E00197F1F7DF91CF919E
:1006D0000895CF92DF92EF92FF920F931F93CF93E3
:1006E000DF936C017C0187E0E80EF11CD0E0C0E0F4
:1006F000062F10E0B8010C2E02C0759567950A947C
:10070000E2F76170F70181917F010E94B4022196A6
:10071000C430D10579F7C601DF91CF911F910F91B8
:10072000FF90EF90DF90CF900C945303CF92DF9225
:10073000EF92FF920F931F93CF93DF93EC01F62E6E
:10074000642F8C810E94B4028D818F3F19F060E08C
:100750000E94B4020F2D10E08F8584FF25C06E012A
:1007600087E0C80ED11CF12CE12CB8010E2C02C080
:10077000759567950A94E2F76170F60181916F01B2
:100780000E94B402FFEFEF1AFF0A88E0E816F104B6
:1007900061F7CE01DF91CF911F910F91FF90EF9004
:1007A000DF90CF900C945303B80184E07595679562
:1007B0008A95E1F7CE010E9469036F2DCE01DF918A
:1007C000CF911F910F91FF90EF90DF90CF900C94FD
:1007D000690340E0682F88EF92E00C94960381E073
:1007E0000E94E9038BE39FE10197F1F70895CF930E
:1007F000DF93823029F49091070398609093070368
:1008000080930B0310920C0380E480930D0380E12E
:1008100080930E0380E580930F038091FC020E9479
:1008200061018091FD028F3F11F00E946101809172
:10083000FE020E946101C8EFD2E09E01285F3240B3
:100840008091070384FD0AC084E090E02196281778
:1008500039073CF48E810E946101EFCF88E090E07F
:10086000F5CF8BE39DE00197F1F760E08091FC020A
:100870000E94B40260E08091FE020E94B402809166
:10088000FD028F3F19F060E00E94B40280910703DF
:1008900084FD34C063E088EF92E00E946903CBE4FA
:1008A000D6E4CE010197F1F763E088EF92E00E9471
:1008B00069032197F1F763E088EF92E00E946903F2
:1008C00083E592E00197F1F762E088EF92E00E9401
:1008D00069038091070380620E94E90384E08093AA
:1008E00008038CE00E94E9030E94EF0382E08093FA
:1008F000090386E0DF91CF910C94E90380620E94A6
:10090000E9038BE496E40197F1F780910703806295
:100910000E94E90383E592E00197F1F780910703D4
:1009200080620E94E903D5CF41E00E94960381E0F6
:1009300090E008951F920F920FB60F9211240BB6FC
:100940000F922F933F934F935F936F937F938F9368
:100950009F93AF93BF93EF93FF938BE592E00E9439
:10096000F401FF91EF91BF91AF919F918F917F9192
:100970006F915F914F913F912F910F900BBE0F9010
:100980000FBE0F901F9018951F920F920FB60F92E7
:1009900011240BB60F922F938F939F93EF93FF9396
:1009A000E0916B02F0916C028081E0917102F09114
:1009B000720282FD1DC09081809174028F5F8F73DF
:1009C00020917502821741F0E0917402F0E0E55A3F
:1009D000FD4F958F80937402FF91EF919F918F91BE
:1009E0002F910F900BBE0F900FBE0F901F90189578
:1009F0008081F2CF1F920F920FB60F9211242F9386
:100A00003F938F939F93AF93BF9380914D029091AB
:100A10004E02A0914F02B091500230914C0223E05F
:100A2000230F2D3758F50196A11DB11D20934C02BF
:100A300080934D0290934E02A0934F02B0935002C8
:100A40008091480290914902A0914A02B0914B02D4
:100A50000196A11DB11D8093480290934902A09375
:100A60004A02B0934B02BF91AF919F918F913F91FA
:100A70002F910F900FBE0F901F90189526E8230F0F
:100A80000296A11DB11DD2CFEBE5F2E013821282D6
:100A900088EE93E0A0E0B0E084839583A683B783DB
:100AA0008BE092E09183808385EC90E0958784874A
:100AB00084EC90E09787868780EC90E0918B808B28
:100AC00081EC90E0938B828B82EC90E0958B848B11
:100AD00086EC90E0978B868B118E128E138E148E7F
:100AE000E8EFF2E0138212828DE192E0918380833D
:100AF0008DE084838FEF85838CE0868388E0878315
:100B000089E080878AE081878BE08287138614865C
:100B100015861686178681E00C94F703789484B5C1
:100B2000826084BD84B5816084BD85B5826085BDE9
:100B300085B5816085BD80916E00816080936E0077
:100B40001092810080918100826080938100809169
:100B5000810081608093810080918000816080931A
:100B600080008091B10084608093B1008091B000DA
:100B700081608093B00080919100826080939100A9
:100B800080919100816080939100809190008160BC
:100B9000809390008091A10082608093A100809159
:100BA000A10081608093A1008091A000816080936A
:100BB000A000809121018260809321018091210118
:100BC00081608093210180912001816080932001C8
:100BD00080917A00846080937A0080917A008260AC
:100BE00080937A0080917A00816080937A0080916E
:100BF0007A00806880937A001092C10082E00E949F
:100C0000F7030E94EF03E0916B02F0916C0282E027
:100C10008083E0916702F09168021082E09169029E
:100C2000F0916A028FEC808310927302E0916F0260
:100C3000F091700286E08083E0916D02F0916E0287
:100C4000808180618083E0916D02F0916E028081ED
:100C500088608083E0916D02F0916E0280818068EF
:100C60008083E0916D02F0916E0280818F7D8083A0
:100C7000C9E5D2E00AE512E0EE24E394F12CE1E0CC
:100C800080910B038111E0E0E195F0E0E850FD4F29
:100C9000848980680E94E9038BE592E00E94DE016E
:100CA0001816190634F48BE592E00E94BC0180937B
:100CB0005A02D0905A0241E06D2D88EF92E00E94D6
:100CC000960383E6D81202C00E94EF036D2DDD0C5F
:100CD000770B605371096A307105D8F483E5A82E4B
:100CE00082E0B82E80915A02F50181935F018BE575
:100CF00092E00E94BC01D82E80935A0241E0682FF6
:100D000088EF92E00E949603CA15DB0559F7D0924E
:100D1000590280915A028A3249F5E3E5F2E0A0E0F7
:100D2000B2E091918D91981324C00E171F07C9F757
:100D300080915102909152020197C1F0E0910B0312
:100D4000E230B0F5E150F0E0E850FD4F8489806872
:100D50000E94E90366E372E088EF92E00E94440398
:100D600064E372E08BE592E00E9444030E948302F8
:100D700086CFE0910B03E230C8F4E150F0E0E85098
:100D8000FD4F848980680E94E90365E272E088EF84
:100D900092E00E94440364E372E08BE592E00E94DB
:100DA0004403F0925202E0925102C2CFE1E0E6CF5A
:100DB000E1E0C9CFEE0FFF1F881F8BBF0790F691B0
:080DC000E02D1994F894FFCF17
:100DC800393833313730310000000016028001AD68
:100DD800016302DE01BC01D0010000000094048020
:100DE800014103400377726F6E67207061737377F8
:100DF8006F7264000A00636F7272656374207061B9
:080E08007373776F7264000040
:00000001FF
